{
	"Lyndah/Class .sol": {
		"Katusiime": {
			"abi": [
				{
					"constant": true,
					"inputs": [],
					"name": "getresult",
					"outputs": [
						{
							"name": "",
							"type": "uint256"
						}
					],
					"payable": false,
					"stateMutability": "view",
					"type": "function"
				}
			],
			"devdoc": {
				"methods": {}
			},
			"evm": {
				"assembly": "    /* \"Lyndah/Class .sol\":27:315  contract Katusiime{\r... */\n  mstore(0x40, 0x80)\n  callvalue\n    /* \"--CODEGEN--\":8:17   */\n  dup1\n    /* \"--CODEGEN--\":5:7   */\n  iszero\n  tag_1\n  jumpi\n    /* \"--CODEGEN--\":30:31   */\n  0x0\n    /* \"--CODEGEN--\":27:28   */\n  dup1\n    /* \"--CODEGEN--\":20:32   */\n  revert\n    /* \"--CODEGEN--\":5:7   */\ntag_1:\n    /* \"Lyndah/Class .sol\":27:315  contract Katusiime{\r... */\n  pop\n  dataSize(sub_0)\n  dup1\n  dataOffset(sub_0)\n  0x0\n  codecopy\n  0x0\n  return\nstop\n\nsub_0: assembly {\n        /* \"Lyndah/Class .sol\":27:315  contract Katusiime{\r... */\n      mstore(0x40, 0x80)\n      jumpi(tag_1, lt(calldatasize, 0x4))\n      calldataload(0x0)\n      0x100000000000000000000000000000000000000000000000000000000\n      swap1\n      div\n      0xffffffff\n      and\n      dup1\n      0x40fc0502\n      eq\n      tag_2\n      jumpi\n    tag_1:\n      0x0\n      dup1\n      revert\n        /* \"Lyndah/Class .sol\":123:302  function getresult() public pure returns(uint) {\r... */\n    tag_2:\n      callvalue\n        /* \"--CODEGEN--\":8:17   */\n      dup1\n        /* \"--CODEGEN--\":5:7   */\n      iszero\n      tag_3\n      jumpi\n        /* \"--CODEGEN--\":30:31   */\n      0x0\n        /* \"--CODEGEN--\":27:28   */\n      dup1\n        /* \"--CODEGEN--\":20:32   */\n      revert\n        /* \"--CODEGEN--\":5:7   */\n    tag_3:\n        /* \"Lyndah/Class .sol\":123:302  function getresult() public pure returns(uint) {\r... */\n      pop\n      tag_4\n      jump(tag_5)\n    tag_4:\n      mload(0x40)\n      dup1\n      dup3\n      dup2\n      mstore\n      0x20\n      add\n      swap2\n      pop\n      pop\n      mload(0x40)\n      dup1\n      swap2\n      sub\n      swap1\n      return\n    tag_5:\n        /* \"Lyndah/Class .sol\":164:168  uint */\n      0x0\n        /* \"Lyndah/Class .sol\":213:219  uint a */\n      dup1\n        /* \"Lyndah/Class .sol\":222:223  2 */\n      0x2\n        /* \"Lyndah/Class .sol\":213:223  uint a = 2 */\n      swap1\n      pop\n        /* \"Lyndah/Class .sol\":234:240  uint b */\n      0x0\n        /* \"Lyndah/Class .sol\":243:244  7 */\n      0x7\n        /* \"Lyndah/Class .sol\":234:244  uint b = 7 */\n      swap1\n      pop\n        /* \"Lyndah/Class .sol\":257:263  uint c */\n      0x0\n        /* \"Lyndah/Class .sol\":268:269  b */\n      dup2\n        /* \"Lyndah/Class .sol\":266:267  a */\n      dup4\n        /* \"Lyndah/Class .sol\":266:269  a+b */\n      add\n        /* \"Lyndah/Class .sol\":257:269  uint c = a+b */\n      swap1\n      pop\n        /* \"Lyndah/Class .sol\":289:290  c */\n      dup1\n        /* \"Lyndah/Class .sol\":282:290  return c */\n      swap4\n      pop\n      pop\n      pop\n      pop\n        /* \"Lyndah/Class .sol\":123:302  function getresult() public pure returns(uint) {\r... */\n      swap1\n      jump\t// out\n\n    auxdata: 0xa165627a7a72305820bdd8123fe08da15d3053152f313cc2f110acb70d4f75bb2f1d6aec47d67160be0029\n}\n",
				"bytecode": {
					"linkReferences": {},
					"object": "6080604052348015600f57600080fd5b5060b58061001e6000396000f3fe608060405260043610603f576000357c0100000000000000000000000000000000000000000000000000000000900463ffffffff16806340fc0502146044575b600080fd5b348015604f57600080fd5b506056606c565b6040518082815260200191505060405180910390f35b60008060029050600060079050600081830190508093505050509056fea165627a7a72305820bdd8123fe08da15d3053152f313cc2f110acb70d4f75bb2f1d6aec47d67160be0029",
					"opcodes": "PUSH1 0x80 PUSH1 0x40 MSTORE CALLVALUE DUP1 ISZERO PUSH1 0xF JUMPI PUSH1 0x0 DUP1 REVERT JUMPDEST POP PUSH1 0xB5 DUP1 PUSH2 0x1E PUSH1 0x0 CODECOPY PUSH1 0x0 RETURN INVALID PUSH1 0x80 PUSH1 0x40 MSTORE PUSH1 0x4 CALLDATASIZE LT PUSH1 0x3F JUMPI PUSH1 0x0 CALLDATALOAD PUSH29 0x100000000000000000000000000000000000000000000000000000000 SWAP1 DIV PUSH4 0xFFFFFFFF AND DUP1 PUSH4 0x40FC0502 EQ PUSH1 0x44 JUMPI JUMPDEST PUSH1 0x0 DUP1 REVERT JUMPDEST CALLVALUE DUP1 ISZERO PUSH1 0x4F JUMPI PUSH1 0x0 DUP1 REVERT JUMPDEST POP PUSH1 0x56 PUSH1 0x6C JUMP JUMPDEST PUSH1 0x40 MLOAD DUP1 DUP3 DUP2 MSTORE PUSH1 0x20 ADD SWAP2 POP POP PUSH1 0x40 MLOAD DUP1 SWAP2 SUB SWAP1 RETURN JUMPDEST PUSH1 0x0 DUP1 PUSH1 0x2 SWAP1 POP PUSH1 0x0 PUSH1 0x7 SWAP1 POP PUSH1 0x0 DUP2 DUP4 ADD SWAP1 POP DUP1 SWAP4 POP POP POP POP SWAP1 JUMP INVALID LOG1 PUSH6 0x627A7A723058 KECCAK256 0xbd 0xd8 SLT EXTCODEHASH 0xe0 DUP14 LOG1 0x5d ADDRESS MSTORE8 ISZERO 0x2f BALANCE EXTCODECOPY 0xc2 CALL LT 0xac 0xb7 0xd 0x4f PUSH22 0xBB2F1D6AEC47D67160BE002900000000000000000000 "
				},
				"gasEstimates": {
					"creation": {
						"codeDepositCost": "36200",
						"executionCost": "87",
						"totalCost": "36287"
					},
					"external": {
						"getresult()": "247"
					}
				},
				"methodIdentifiers": {
					"getresult()": "40fc0502"
				}
			},
			"userdoc": {
				"methods": {}
			}
		}
	}
}