{
	"Lyndah/Interest.sol": {
		"Interest": {
			"abi": [
				{
					"constant": true,
					"inputs": [],
					"name": "getresult",
					"outputs": [
						{
							"internalType": "uint256",
							"name": "",
							"type": "uint256"
						}
					],
					"payable": false,
					"stateMutability": "view",
					"type": "function"
				}
			],
			"devdoc": {
				"methods": {}
			},
			"evm": {
				"assembly": "    /* \"Lyndah/Interest.sol\":166:511  contract Interest{\r... */\n  mstore(0x40, 0x80)\n  callvalue\n    /* \"--CODEGEN--\":8:17   */\n  dup1\n    /* \"--CODEGEN--\":5:7   */\n  iszero\n  tag_1\n  jumpi\n    /* \"--CODEGEN--\":30:31   */\n  0x00\n    /* \"--CODEGEN--\":27:28   */\n  dup1\n    /* \"--CODEGEN--\":20:32   */\n  revert\n    /* \"--CODEGEN--\":5:7   */\ntag_1:\n    /* \"Lyndah/Interest.sol\":166:511  contract Interest{\r... */\n  pop\n  dataSize(sub_0)\n  dup1\n  dataOffset(sub_0)\n  0x00\n  codecopy\n  0x00\n  return\nstop\n\nsub_0: assembly {\n        /* \"Lyndah/Interest.sol\":166:511  contract Interest{\r... */\n      mstore(0x40, 0x80)\n      callvalue\n        /* \"--CODEGEN--\":8:17   */\n      dup1\n        /* \"--CODEGEN--\":5:7   */\n      iszero\n      tag_1\n      jumpi\n        /* \"--CODEGEN--\":30:31   */\n      0x00\n        /* \"--CODEGEN--\":27:28   */\n      dup1\n        /* \"--CODEGEN--\":20:32   */\n      revert\n        /* \"--CODEGEN--\":5:7   */\n    tag_1:\n        /* \"Lyndah/Interest.sol\":166:511  contract Interest{\r... */\n      pop\n      jumpi(tag_2, lt(calldatasize, 0x04))\n      shr(0xe0, calldataload(0x00))\n      dup1\n      0x40fc0502\n      eq\n      tag_3\n      jumpi\n    tag_2:\n      0x00\n      dup1\n      revert\n        /* \"Lyndah/Interest.sol\":192:508  function getresult() public pure returns(uint){\r... */\n    tag_3:\n      tag_4\n      tag_5\n      jump\t// in\n    tag_4:\n      mload(0x40)\n      dup1\n      dup3\n      dup2\n      mstore\n      0x20\n      add\n      swap2\n      pop\n      pop\n      mload(0x40)\n      dup1\n      swap2\n      sub\n      swap1\n      return\n    tag_5:\n        /* \"Lyndah/Interest.sol\":233:237  uint */\n      0x00\n        /* \"Lyndah/Interest.sol\":392:398  uint p */\n      dup1\n        /* \"Lyndah/Interest.sol\":401:403  10 */\n      0x0a\n        /* \"Lyndah/Interest.sol\":392:403  uint p = 10 */\n      swap1\n      pop\n        /* \"Lyndah/Interest.sol\":414:420  uint r */\n      0x00\n        /* \"Lyndah/Interest.sol\":423:425  12 */\n      0x0c\n        /* \"Lyndah/Interest.sol\":414:425  uint r = 12 */\n      swap1\n      pop\n        /* \"Lyndah/Interest.sol\":436:442  uint t */\n      0x00\n        /* \"Lyndah/Interest.sol\":445:446  3 */\n      0x03\n        /* \"Lyndah/Interest.sol\":436:446  uint t = 3 */\n      swap1\n      pop\n        /* \"Lyndah/Interest.sol\":459:465  uint i */\n      0x00\n        /* \"Lyndah/Interest.sol\":476:479  100 */\n      0x64\n        /* \"Lyndah/Interest.sol\":473:474  t */\n      dup3\n        /* \"Lyndah/Interest.sol\":471:472  r */\n      dup5\n        /* \"Lyndah/Interest.sol\":469:470  p */\n      dup7\n        /* \"Lyndah/Interest.sol\":469:472  p*r */\n      mul\n        /* \"Lyndah/Interest.sol\":469:474  p*r*t */\n      mul\n        /* \"Lyndah/Interest.sol\":468:479  (p*r*t)/100 */\n      dup2\n      tag_7\n      jumpi\n      invalid\n    tag_7:\n      div\n        /* \"Lyndah/Interest.sol\":459:479  uint i = (p*r*t)/100 */\n      swap1\n      pop\n        /* \"Lyndah/Interest.sol\":499:500  i */\n      dup1\n        /* \"Lyndah/Interest.sol\":492:500  return i */\n      swap5\n      pop\n      pop\n      pop\n      pop\n      pop\n        /* \"Lyndah/Interest.sol\":192:508  function getresult() public pure returns(uint){\r... */\n      swap1\n      jump\t// out\n\n    auxdata: 0xa265627a7a72315820ca9074e7bf7ea1e0cae285615ed58964721d60aaa5b1cd57e913d10b8b72c05664736f6c63430005110032\n}\n",
				"bytecode": {
					"linkReferences": {},
					"object": "6080604052348015600f57600080fd5b5060ad8061001e6000396000f3fe6080604052348015600f57600080fd5b506004361060285760003560e01c806340fc050214602d575b600080fd5b60336049565b6040518082815260200191505060405180910390f35b600080600a90506000600c905060006003905060006064828486020281606b57fe5b049050809450505050509056fea265627a7a72315820ca9074e7bf7ea1e0cae285615ed58964721d60aaa5b1cd57e913d10b8b72c05664736f6c63430005110032",
					"opcodes": "PUSH1 0x80 PUSH1 0x40 MSTORE CALLVALUE DUP1 ISZERO PUSH1 0xF JUMPI PUSH1 0x0 DUP1 REVERT JUMPDEST POP PUSH1 0xAD DUP1 PUSH2 0x1E PUSH1 0x0 CODECOPY PUSH1 0x0 RETURN INVALID PUSH1 0x80 PUSH1 0x40 MSTORE CALLVALUE DUP1 ISZERO PUSH1 0xF JUMPI PUSH1 0x0 DUP1 REVERT JUMPDEST POP PUSH1 0x4 CALLDATASIZE LT PUSH1 0x28 JUMPI PUSH1 0x0 CALLDATALOAD PUSH1 0xE0 SHR DUP1 PUSH4 0x40FC0502 EQ PUSH1 0x2D JUMPI JUMPDEST PUSH1 0x0 DUP1 REVERT JUMPDEST PUSH1 0x33 PUSH1 0x49 JUMP JUMPDEST PUSH1 0x40 MLOAD DUP1 DUP3 DUP2 MSTORE PUSH1 0x20 ADD SWAP2 POP POP PUSH1 0x40 MLOAD DUP1 SWAP2 SUB SWAP1 RETURN JUMPDEST PUSH1 0x0 DUP1 PUSH1 0xA SWAP1 POP PUSH1 0x0 PUSH1 0xC SWAP1 POP PUSH1 0x0 PUSH1 0x3 SWAP1 POP PUSH1 0x0 PUSH1 0x64 DUP3 DUP5 DUP7 MUL MUL DUP2 PUSH1 0x6B JUMPI INVALID JUMPDEST DIV SWAP1 POP DUP1 SWAP5 POP POP POP POP POP SWAP1 JUMP INVALID LOG2 PUSH6 0x627A7A723158 KECCAK256 0xCA SWAP1 PUSH21 0xE7BF7EA1E0CAE285615ED58964721D60AAA5B1CD57 0xE9 SGT 0xD1 SIGNEXTEND DUP12 PUSH19 0xC05664736F6C63430005110032000000000000 "
				},
				"gasEstimates": {
					"creation": {
						"codeDepositCost": "34600",
						"executionCost": "87",
						"totalCost": "34687"
					},
					"external": {
						"getresult()": "284"
					}
				},
				"methodIdentifiers": {
					"getresult()": "40fc0502"
				}
			},
			"storageLayout": {
				"storage": [],
				"types": null
			},
			"userdoc": {
				"methods": {}
			}
		}
	}
}