{
	"Lyndah/Class .sol": {
		"Katusiime": {
			"abi": [
				{
					"constant": true,
					"inputs": [],
					"name": "getresult",
					"outputs": [
						{
							"name": "",
							"type": "uint256"
						}
					],
					"payable": false,
					"stateMutability": "view",
					"type": "function"
				}
			],
			"devdoc": {
				"methods": {}
			},
			"evm": {
				"assembly": "    /* \"Lyndah/Class .sol\":64:353  contract Katusiime{\r... */\n  mstore(0x40, 0x80)\n  callvalue\n    /* \"--CODEGEN--\":8:17   */\n  dup1\n    /* \"--CODEGEN--\":5:7   */\n  iszero\n  tag_1\n  jumpi\n    /* \"--CODEGEN--\":30:31   */\n  0x0\n    /* \"--CODEGEN--\":27:28   */\n  dup1\n    /* \"--CODEGEN--\":20:32   */\n  revert\n    /* \"--CODEGEN--\":5:7   */\ntag_1:\n    /* \"Lyndah/Class .sol\":64:353  contract Katusiime{\r... */\n  pop\n  dataSize(sub_0)\n  dup1\n  dataOffset(sub_0)\n  0x0\n  codecopy\n  0x0\n  return\nstop\n\nsub_0: assembly {\n        /* \"Lyndah/Class .sol\":64:353  contract Katusiime{\r... */\n      mstore(0x40, 0x80)\n      jumpi(tag_1, lt(calldatasize, 0x4))\n      calldataload(0x0)\n      0x100000000000000000000000000000000000000000000000000000000\n      swap1\n      div\n      0xffffffff\n      and\n      dup1\n      0x40fc0502\n      eq\n      tag_2\n      jumpi\n    tag_1:\n      0x0\n      dup1\n      revert\n        /* \"Lyndah/Class .sol\":160:340  function getresult() public view returns (uint) {\r... */\n    tag_2:\n      callvalue\n        /* \"--CODEGEN--\":8:17   */\n      dup1\n        /* \"--CODEGEN--\":5:7   */\n      iszero\n      tag_3\n      jumpi\n        /* \"--CODEGEN--\":30:31   */\n      0x0\n        /* \"--CODEGEN--\":27:28   */\n      dup1\n        /* \"--CODEGEN--\":20:32   */\n      revert\n        /* \"--CODEGEN--\":5:7   */\n    tag_3:\n        /* \"Lyndah/Class .sol\":160:340  function getresult() public view returns (uint) {\r... */\n      pop\n      tag_4\n      jump(tag_5)\n    tag_4:\n      mload(0x40)\n      dup1\n      dup3\n      dup2\n      mstore\n      0x20\n      add\n      swap2\n      pop\n      pop\n      mload(0x40)\n      dup1\n      swap2\n      sub\n      swap1\n      return\n    tag_5:\n        /* \"Lyndah/Class .sol\":202:206  uint */\n      0x0\n        /* \"Lyndah/Class .sol\":251:257  uint a */\n      dup1\n        /* \"Lyndah/Class .sol\":260:261  2 */\n      0x2\n        /* \"Lyndah/Class .sol\":251:261  uint a = 2 */\n      swap1\n      pop\n        /* \"Lyndah/Class .sol\":272:278  uint b */\n      0x0\n        /* \"Lyndah/Class .sol\":281:282  7 */\n      0x7\n        /* \"Lyndah/Class .sol\":272:282  uint b = 7 */\n      swap1\n      pop\n        /* \"Lyndah/Class .sol\":295:301  uint c */\n      0x0\n        /* \"Lyndah/Class .sol\":306:307  b */\n      dup2\n        /* \"Lyndah/Class .sol\":304:305  a */\n      dup4\n        /* \"Lyndah/Class .sol\":304:307  a+b */\n      add\n        /* \"Lyndah/Class .sol\":295:307  uint c = a+b */\n      swap1\n      pop\n        /* \"Lyndah/Class .sol\":327:328  c */\n      dup1\n        /* \"Lyndah/Class .sol\":320:328  return c */\n      swap4\n      pop\n      pop\n      pop\n      pop\n        /* \"Lyndah/Class .sol\":160:340  function getresult() public view returns (uint) {\r... */\n      swap1\n      jump\t// out\n\n    auxdata: 0xa165627a7a7230582017d2289de2103b94144c4c1ae5db02264dcbfab3c7cc062749d94dd1c76a8e700029\n}\n",
				"bytecode": {
					"linkReferences": {},
					"object": "6080604052348015600f57600080fd5b5060b58061001e6000396000f3fe608060405260043610603f576000357c0100000000000000000000000000000000000000000000000000000000900463ffffffff16806340fc0502146044575b600080fd5b348015604f57600080fd5b506056606c565b6040518082815260200191505060405180910390f35b60008060029050600060079050600081830190508093505050509056fea165627a7a7230582017d2289de2103b94144c4c1ae5db02264dcbfab3c7cc062749d94dd1c76a8e700029",
					"opcodes": "PUSH1 0x80 PUSH1 0x40 MSTORE CALLVALUE DUP1 ISZERO PUSH1 0xF JUMPI PUSH1 0x0 DUP1 REVERT JUMPDEST POP PUSH1 0xB5 DUP1 PUSH2 0x1E PUSH1 0x0 CODECOPY PUSH1 0x0 RETURN INVALID PUSH1 0x80 PUSH1 0x40 MSTORE PUSH1 0x4 CALLDATASIZE LT PUSH1 0x3F JUMPI PUSH1 0x0 CALLDATALOAD PUSH29 0x100000000000000000000000000000000000000000000000000000000 SWAP1 DIV PUSH4 0xFFFFFFFF AND DUP1 PUSH4 0x40FC0502 EQ PUSH1 0x44 JUMPI JUMPDEST PUSH1 0x0 DUP1 REVERT JUMPDEST CALLVALUE DUP1 ISZERO PUSH1 0x4F JUMPI PUSH1 0x0 DUP1 REVERT JUMPDEST POP PUSH1 0x56 PUSH1 0x6C JUMP JUMPDEST PUSH1 0x40 MLOAD DUP1 DUP3 DUP2 MSTORE PUSH1 0x20 ADD SWAP2 POP POP PUSH1 0x40 MLOAD DUP1 SWAP2 SUB SWAP1 RETURN JUMPDEST PUSH1 0x0 DUP1 PUSH1 0x2 SWAP1 POP PUSH1 0x0 PUSH1 0x7 SWAP1 POP PUSH1 0x0 DUP2 DUP4 ADD SWAP1 POP DUP1 SWAP4 POP POP POP POP SWAP1 JUMP INVALID LOG1 PUSH6 0x627A7A723058 KECCAK256 OR 0xd2 0x28 SWAP14 0xe2 LT EXTCODESIZE SWAP5 EQ 0x4c 0x4c BYTE 0xe5 0xdb MUL 0x26 0x4d 0xcb STATICCALL 0xb3 0xc7 0xcc MOD 0x27 0x49 0xd9 0x4d 0xd1 0xc7 PUSH11 0x8E70002900000000000000 "
				},
				"gasEstimates": {
					"creation": {
						"codeDepositCost": "36200",
						"executionCost": "87",
						"totalCost": "36287"
					},
					"external": {
						"getresult()": "247"
					}
				},
				"methodIdentifiers": {
					"getresult()": "40fc0502"
				}
			},
			"userdoc": {
				"methods": {}
			}
		}
	}
}