{
	"13thOct/classwork2.sol": {
		"dev4tech": {
			"abi": [
				{
					"inputs": [],
					"name": "status",
					"outputs": [
						{
							"internalType": "enum dev4tech.Shipping",
							"name": "",
							"type": "uint8"
						}
					],
					"stateMutability": "view",
					"type": "function"
				}
			],
			"devdoc": {
				"kind": "dev",
				"methods": {},
				"version": 1
			},
			"evm": {
				"assembly": "    /* \"13thOct/classwork2.sol\":60:299  contract dev4tech{\r... */\n  mstore(0x40, 0x80)\n  callvalue\n  dup1\n  iszero\n  tag_1\n  jumpi\n  0x00\n  dup1\n  revert\ntag_1:\n  pop\n  dataSize(sub_0)\n  dup1\n  dataOffset(sub_0)\n  0x00\n  codecopy\n  0x00\n  return\nstop\n\nsub_0: assembly {\n        /* \"13thOct/classwork2.sol\":60:299  contract dev4tech{\r... */\n      mstore(0x40, 0x80)\n      callvalue\n      dup1\n      iszero\n      tag_1\n      jumpi\n      0x00\n      dup1\n      revert\n    tag_1:\n      pop\n      jumpi(tag_2, lt(calldatasize, 0x04))\n      shr(0xe0, calldataload(0x00))\n      dup1\n      0x200d2ed2\n      eq\n      tag_3\n      jumpi\n    tag_2:\n      0x00\n      dup1\n      revert\n        /* \"13thOct/classwork2.sol\":271:293  Shipping public status */\n    tag_3:\n      tag_4\n      tag_5\n      jump\t// in\n    tag_4:\n      mload(0x40)\n      tag_6\n      swap2\n      swap1\n      tag_7\n      jump\t// in\n    tag_6:\n      mload(0x40)\n      dup1\n      swap2\n      sub\n      swap1\n      return\n    tag_5:\n      0x00\n      dup1\n      sload\n      swap1\n      0x0100\n      exp\n      swap1\n      div\n      0xff\n      and\n      dup2\n      jump\t// out\n        /* \"#utility.yul\":7:154   */\n    tag_9:\n        /* \"#utility.yul\":102:147   */\n      tag_11\n        /* \"#utility.yul\":141:146   */\n      dup2\n        /* \"#utility.yul\":102:147   */\n      tag_12\n      jump\t// in\n    tag_11:\n        /* \"#utility.yul\":97:100   */\n      dup3\n        /* \"#utility.yul\":90:148   */\n      mstore\n        /* \"#utility.yul\":7:154   */\n      pop\n      pop\n      jump\t// out\n        /* \"#utility.yul\":160:398   */\n    tag_7:\n        /* \"#utility.yul\":261:265   */\n      0x00\n        /* \"#utility.yul\":299:301   */\n      0x20\n        /* \"#utility.yul\":288:297   */\n      dup3\n        /* \"#utility.yul\":284:302   */\n      add\n        /* \"#utility.yul\":276:302   */\n      swap1\n      pop\n        /* \"#utility.yul\":312:391   */\n      tag_14\n        /* \"#utility.yul\":388:389   */\n      0x00\n        /* \"#utility.yul\":377:386   */\n      dup4\n        /* \"#utility.yul\":373:390   */\n      add\n        /* \"#utility.yul\":364:370   */\n      dup5\n        /* \"#utility.yul\":312:391   */\n      tag_9\n      jump\t// in\n    tag_14:\n        /* \"#utility.yul\":160:398   */\n      swap3\n      swap2\n      pop\n      pop\n      jump\t// out\n        /* \"#utility.yul\":404:535   */\n    tag_15:\n        /* \"#utility.yul\":451:458   */\n      0x00\n        /* \"#utility.yul\":480:485   */\n      dup2\n        /* \"#utility.yul\":469:485   */\n      swap1\n      pop\n        /* \"#utility.yul\":486:529   */\n      tag_17\n        /* \"#utility.yul\":523:528   */\n      dup3\n        /* \"#utility.yul\":486:529   */\n      tag_18\n      jump\t// in\n    tag_17:\n        /* \"#utility.yul\":404:535   */\n      swap2\n      swap1\n      pop\n      jump\t// out\n        /* \"#utility.yul\":541:672   */\n    tag_12:\n        /* \"#utility.yul\":599:608   */\n      0x00\n        /* \"#utility.yul\":632:666   */\n      tag_20\n        /* \"#utility.yul\":660:665   */\n      dup3\n        /* \"#utility.yul\":632:666   */\n      tag_15\n      jump\t// in\n    tag_20:\n        /* \"#utility.yul\":619:666   */\n      swap1\n      pop\n        /* \"#utility.yul\":541:672   */\n      swap2\n      swap1\n      pop\n      jump\t// out\n        /* \"#utility.yul\":678:858   */\n    tag_21:\n        /* \"#utility.yul\":726:803   */\n      0x4e487b7100000000000000000000000000000000000000000000000000000000\n        /* \"#utility.yul\":723:724   */\n      0x00\n        /* \"#utility.yul\":716:804   */\n      mstore\n        /* \"#utility.yul\":823:827   */\n      0x21\n        /* \"#utility.yul\":820:821   */\n      0x04\n        /* \"#utility.yul\":813:828   */\n      mstore\n        /* \"#utility.yul\":847:851   */\n      0x24\n        /* \"#utility.yul\":844:845   */\n      0x00\n        /* \"#utility.yul\":837:852   */\n      revert\n        /* \"#utility.yul\":864:979   */\n    tag_18:\n        /* \"#utility.yul\":947:948   */\n      0x06\n        /* \"#utility.yul\":940:945   */\n      dup2\n        /* \"#utility.yul\":937:949   */\n      lt\n        /* \"#utility.yul\":927:973   */\n      tag_24\n      jumpi\n        /* \"#utility.yul\":953:971   */\n      tag_25\n      tag_21\n      jump\t// in\n    tag_25:\n        /* \"#utility.yul\":927:973   */\n    tag_24:\n        /* \"#utility.yul\":864:979   */\n      pop\n      jump\t// out\n\n    auxdata: 0xa26469706673582212201d0a8a51b0886368a3ec96e7b528dbb785e5404d11293dbea664c82082deddf964736f6c63430008070033\n}\n",
				"bytecode": {
					"linkReferences": {},
					"object": "608060405234801561001057600080fd5b50610115806100206000396000f3fe6080604052348015600f57600080fd5b506004361060285760003560e01c8063200d2ed214602d575b600080fd5b60336047565b604051603e91906065565b60405180910390f35b60008054906101000a900460ff1681565b605f81608f565b82525050565b6000602082019050607860008301846058565b92915050565b6000819050608a8260ce565b919050565b6000609882607e565b9050919050565b7f4e487b7100000000000000000000000000000000000000000000000000000000600052602160045260246000fd5b6006811060dc5760db609f565b5b5056fea26469706673582212201d0a8a51b0886368a3ec96e7b528dbb785e5404d11293dbea664c82082deddf964736f6c63430008070033",
					"opcodes": "PUSH1 0x80 PUSH1 0x40 MSTORE CALLVALUE DUP1 ISZERO PUSH2 0x10 JUMPI PUSH1 0x0 DUP1 REVERT JUMPDEST POP PUSH2 0x115 DUP1 PUSH2 0x20 PUSH1 0x0 CODECOPY PUSH1 0x0 RETURN INVALID PUSH1 0x80 PUSH1 0x40 MSTORE CALLVALUE DUP1 ISZERO PUSH1 0xF JUMPI PUSH1 0x0 DUP1 REVERT JUMPDEST POP PUSH1 0x4 CALLDATASIZE LT PUSH1 0x28 JUMPI PUSH1 0x0 CALLDATALOAD PUSH1 0xE0 SHR DUP1 PUSH4 0x200D2ED2 EQ PUSH1 0x2D JUMPI JUMPDEST PUSH1 0x0 DUP1 REVERT JUMPDEST PUSH1 0x33 PUSH1 0x47 JUMP JUMPDEST PUSH1 0x40 MLOAD PUSH1 0x3E SWAP2 SWAP1 PUSH1 0x65 JUMP JUMPDEST PUSH1 0x40 MLOAD DUP1 SWAP2 SUB SWAP1 RETURN JUMPDEST PUSH1 0x0 DUP1 SLOAD SWAP1 PUSH2 0x100 EXP SWAP1 DIV PUSH1 0xFF AND DUP2 JUMP JUMPDEST PUSH1 0x5F DUP2 PUSH1 0x8F JUMP JUMPDEST DUP3 MSTORE POP POP JUMP JUMPDEST PUSH1 0x0 PUSH1 0x20 DUP3 ADD SWAP1 POP PUSH1 0x78 PUSH1 0x0 DUP4 ADD DUP5 PUSH1 0x58 JUMP JUMPDEST SWAP3 SWAP2 POP POP JUMP JUMPDEST PUSH1 0x0 DUP2 SWAP1 POP PUSH1 0x8A DUP3 PUSH1 0xCE JUMP JUMPDEST SWAP2 SWAP1 POP JUMP JUMPDEST PUSH1 0x0 PUSH1 0x98 DUP3 PUSH1 0x7E JUMP JUMPDEST SWAP1 POP SWAP2 SWAP1 POP JUMP JUMPDEST PUSH32 0x4E487B7100000000000000000000000000000000000000000000000000000000 PUSH1 0x0 MSTORE PUSH1 0x21 PUSH1 0x4 MSTORE PUSH1 0x24 PUSH1 0x0 REVERT JUMPDEST PUSH1 0x6 DUP2 LT PUSH1 0xDC JUMPI PUSH1 0xDB PUSH1 0x9F JUMP JUMPDEST JUMPDEST POP JUMP INVALID LOG2 PUSH5 0x6970667358 0x22 SLT KECCAK256 SAR EXP DUP11 MLOAD 0xB0 DUP9 PUSH4 0x68A3EC96 0xE7 0xB5 0x28 0xDB 0xB7 DUP6 0xE5 BLOCKHASH 0x4D GT 0x29 RETURNDATASIZE 0xBE 0xA6 PUSH5 0xC82082DEDD 0xF9 PUSH5 0x736F6C6343 STOP ADDMOD SMOD STOP CALLER "
				},
				"gasEstimates": {
					"creation": {
						"codeDepositCost": "55400",
						"executionCost": "105",
						"totalCost": "55505"
					},
					"external": {
						"status()": "2535"
					}
				},
				"methodIdentifiers": {
					"status()": "200d2ed2"
				}
			},
			"storageLayout": {
				"storage": [
					{
						"astId": 11,
						"contract": "13thOct/classwork2.sol:dev4tech",
						"label": "status",
						"offset": 0,
						"slot": "0",
						"type": "t_enum(Shipping)8"
					}
				],
				"types": {
					"t_enum(Shipping)8": {
						"encoding": "inplace",
						"label": "enum dev4tech.Shipping",
						"numberOfBytes": "1"
					}
				}
			},
			"userdoc": {
				"kind": "user",
				"methods": {},
				"version": 1
			}
		}
	}
}