{
	"13thOct/enum3.sol": {
		"dev4tech": {
			"abi": [
				{
					"inputs": [],
					"name": "Status",
					"outputs": [
						{
							"internalType": "enum dev4tech.Shipping",
							"name": "",
							"type": "uint8"
						}
					],
					"stateMutability": "view",
					"type": "function"
				},
				{
					"inputs": [],
					"name": "get",
					"outputs": [
						{
							"internalType": "enum dev4tech.Shipping",
							"name": "",
							"type": "uint8"
						}
					],
					"stateMutability": "view",
					"type": "function"
				}
			],
			"devdoc": {
				"kind": "dev",
				"methods": {},
				"version": 1
			},
			"evm": {
				"assembly": "    /* \"13thOct/enum3.sol\":60:426  contract dev4tech{\r... */\n  mstore(0x40, 0x80)\n  callvalue\n  dup1\n  iszero\n  tag_1\n  jumpi\n  0x00\n  dup1\n  revert\ntag_1:\n  pop\n  dataSize(sub_0)\n  dup1\n  dataOffset(sub_0)\n  0x00\n  codecopy\n  0x00\n  return\nstop\n\nsub_0: assembly {\n        /* \"13thOct/enum3.sol\":60:426  contract dev4tech{\r... */\n      mstore(0x40, 0x80)\n      callvalue\n      dup1\n      iszero\n      tag_1\n      jumpi\n      0x00\n      dup1\n      revert\n    tag_1:\n      pop\n      jumpi(tag_2, lt(calldatasize, 0x04))\n      shr(0xe0, calldataload(0x00))\n      dup1\n      0x45f09ce9\n      eq\n      tag_3\n      jumpi\n      dup1\n      0x6d4ce63c\n      eq\n      tag_4\n      jumpi\n    tag_2:\n      0x00\n      dup1\n      revert\n        /* \"13thOct/enum3.sol\":310:332  Shipping public Status */\n    tag_3:\n      tag_5\n      tag_6\n      jump\t// in\n    tag_5:\n      mload(0x40)\n      tag_7\n      swap2\n      swap1\n      tag_8\n      jump\t// in\n    tag_7:\n      mload(0x40)\n      dup1\n      swap2\n      sub\n      swap1\n      return\n        /* \"13thOct/enum3.sol\":341:421  function get() public view returns(Shipping){\r... */\n    tag_4:\n      tag_9\n      tag_10\n      jump\t// in\n    tag_9:\n      mload(0x40)\n      tag_11\n      swap2\n      swap1\n      tag_8\n      jump\t// in\n    tag_11:\n      mload(0x40)\n      dup1\n      swap2\n      sub\n      swap1\n      return\n        /* \"13thOct/enum3.sol\":310:332  Shipping public Status */\n    tag_6:\n      0x00\n      dup1\n      sload\n      swap1\n      0x0100\n      exp\n      swap1\n      div\n      0xff\n      and\n      dup2\n      jump\t// out\n        /* \"13thOct/enum3.sol\":341:421  function get() public view returns(Shipping){\r... */\n    tag_10:\n        /* \"13thOct/enum3.sol\":376:384  Shipping */\n      0x00\n        /* \"13thOct/enum3.sol\":405:411  Status */\n      dup1\n      0x00\n      swap1\n      sload\n      swap1\n      0x0100\n      exp\n      swap1\n      div\n      0xff\n      and\n        /* \"13thOct/enum3.sol\":398:411  return Status */\n      swap1\n      pop\n        /* \"13thOct/enum3.sol\":341:421  function get() public view returns(Shipping){\r... */\n      swap1\n      jump\t// out\n        /* \"#utility.yul\":7:154   */\n    tag_14:\n        /* \"#utility.yul\":102:147   */\n      tag_16\n        /* \"#utility.yul\":141:146   */\n      dup2\n        /* \"#utility.yul\":102:147   */\n      tag_17\n      jump\t// in\n    tag_16:\n        /* \"#utility.yul\":97:100   */\n      dup3\n        /* \"#utility.yul\":90:148   */\n      mstore\n        /* \"#utility.yul\":7:154   */\n      pop\n      pop\n      jump\t// out\n        /* \"#utility.yul\":160:398   */\n    tag_8:\n        /* \"#utility.yul\":261:265   */\n      0x00\n        /* \"#utility.yul\":299:301   */\n      0x20\n        /* \"#utility.yul\":288:297   */\n      dup3\n        /* \"#utility.yul\":284:302   */\n      add\n        /* \"#utility.yul\":276:302   */\n      swap1\n      pop\n        /* \"#utility.yul\":312:391   */\n      tag_19\n        /* \"#utility.yul\":388:389   */\n      0x00\n        /* \"#utility.yul\":377:386   */\n      dup4\n        /* \"#utility.yul\":373:390   */\n      add\n        /* \"#utility.yul\":364:370   */\n      dup5\n        /* \"#utility.yul\":312:391   */\n      tag_14\n      jump\t// in\n    tag_19:\n        /* \"#utility.yul\":160:398   */\n      swap3\n      swap2\n      pop\n      pop\n      jump\t// out\n        /* \"#utility.yul\":404:535   */\n    tag_20:\n        /* \"#utility.yul\":451:458   */\n      0x00\n        /* \"#utility.yul\":480:485   */\n      dup2\n        /* \"#utility.yul\":469:485   */\n      swap1\n      pop\n        /* \"#utility.yul\":486:529   */\n      tag_22\n        /* \"#utility.yul\":523:528   */\n      dup3\n        /* \"#utility.yul\":486:529   */\n      tag_23\n      jump\t// in\n    tag_22:\n        /* \"#utility.yul\":404:535   */\n      swap2\n      swap1\n      pop\n      jump\t// out\n        /* \"#utility.yul\":541:672   */\n    tag_17:\n        /* \"#utility.yul\":599:608   */\n      0x00\n        /* \"#utility.yul\":632:666   */\n      tag_25\n        /* \"#utility.yul\":660:665   */\n      dup3\n        /* \"#utility.yul\":632:666   */\n      tag_20\n      jump\t// in\n    tag_25:\n        /* \"#utility.yul\":619:666   */\n      swap1\n      pop\n        /* \"#utility.yul\":541:672   */\n      swap2\n      swap1\n      pop\n      jump\t// out\n        /* \"#utility.yul\":678:858   */\n    tag_26:\n        /* \"#utility.yul\":726:803   */\n      0x4e487b7100000000000000000000000000000000000000000000000000000000\n        /* \"#utility.yul\":723:724   */\n      0x00\n        /* \"#utility.yul\":716:804   */\n      mstore\n        /* \"#utility.yul\":823:827   */\n      0x21\n        /* \"#utility.yul\":820:821   */\n      0x04\n        /* \"#utility.yul\":813:828   */\n      mstore\n        /* \"#utility.yul\":847:851   */\n      0x24\n        /* \"#utility.yul\":844:845   */\n      0x00\n        /* \"#utility.yul\":837:852   */\n      revert\n        /* \"#utility.yul\":864:979   */\n    tag_23:\n        /* \"#utility.yul\":947:948   */\n      0x06\n        /* \"#utility.yul\":940:945   */\n      dup2\n        /* \"#utility.yul\":937:949   */\n      lt\n        /* \"#utility.yul\":927:973   */\n      tag_29\n      jumpi\n        /* \"#utility.yul\":953:971   */\n      tag_30\n      tag_26\n      jump\t// in\n    tag_30:\n        /* \"#utility.yul\":927:973   */\n    tag_29:\n        /* \"#utility.yul\":864:979   */\n      pop\n      jump\t// out\n\n    auxdata: 0xa264697066735822122015cefca181125a25a4a0bc117e7720c480baabf1eae92dfb9c0e3b5ea660d1ea64736f6c63430008070033\n}\n",
				"bytecode": {
					"linkReferences": {},
					"object": "608060405234801561001057600080fd5b50610166806100206000396000f3fe608060405234801561001057600080fd5b50600436106100365760003560e01c806345f09ce91461003b5780636d4ce63c14610059575b600080fd5b610043610077565b60405161005091906100ad565b60405180910390f35b610061610088565b60405161006e91906100ad565b60405180910390f35b60008054906101000a900460ff1681565b60008060009054906101000a900460ff16905090565b6100a7816100db565b82525050565b60006020820190506100c2600083018461009e565b92915050565b60008190506100d68261011c565b919050565b60006100e6826100c8565b9050919050565b7f4e487b7100000000000000000000000000000000000000000000000000000000600052602160045260246000fd5b6006811061012d5761012c6100ed565b5b5056fea264697066735822122015cefca181125a25a4a0bc117e7720c480baabf1eae92dfb9c0e3b5ea660d1ea64736f6c63430008070033",
					"opcodes": "PUSH1 0x80 PUSH1 0x40 MSTORE CALLVALUE DUP1 ISZERO PUSH2 0x10 JUMPI PUSH1 0x0 DUP1 REVERT JUMPDEST POP PUSH2 0x166 DUP1 PUSH2 0x20 PUSH1 0x0 CODECOPY PUSH1 0x0 RETURN INVALID PUSH1 0x80 PUSH1 0x40 MSTORE CALLVALUE DUP1 ISZERO PUSH2 0x10 JUMPI PUSH1 0x0 DUP1 REVERT JUMPDEST POP PUSH1 0x4 CALLDATASIZE LT PUSH2 0x36 JUMPI PUSH1 0x0 CALLDATALOAD PUSH1 0xE0 SHR DUP1 PUSH4 0x45F09CE9 EQ PUSH2 0x3B JUMPI DUP1 PUSH4 0x6D4CE63C EQ PUSH2 0x59 JUMPI JUMPDEST PUSH1 0x0 DUP1 REVERT JUMPDEST PUSH2 0x43 PUSH2 0x77 JUMP JUMPDEST PUSH1 0x40 MLOAD PUSH2 0x50 SWAP2 SWAP1 PUSH2 0xAD JUMP JUMPDEST PUSH1 0x40 MLOAD DUP1 SWAP2 SUB SWAP1 RETURN JUMPDEST PUSH2 0x61 PUSH2 0x88 JUMP JUMPDEST PUSH1 0x40 MLOAD PUSH2 0x6E SWAP2 SWAP1 PUSH2 0xAD JUMP JUMPDEST PUSH1 0x40 MLOAD DUP1 SWAP2 SUB SWAP1 RETURN JUMPDEST PUSH1 0x0 DUP1 SLOAD SWAP1 PUSH2 0x100 EXP SWAP1 DIV PUSH1 0xFF AND DUP2 JUMP JUMPDEST PUSH1 0x0 DUP1 PUSH1 0x0 SWAP1 SLOAD SWAP1 PUSH2 0x100 EXP SWAP1 DIV PUSH1 0xFF AND SWAP1 POP SWAP1 JUMP JUMPDEST PUSH2 0xA7 DUP2 PUSH2 0xDB JUMP JUMPDEST DUP3 MSTORE POP POP JUMP JUMPDEST PUSH1 0x0 PUSH1 0x20 DUP3 ADD SWAP1 POP PUSH2 0xC2 PUSH1 0x0 DUP4 ADD DUP5 PUSH2 0x9E JUMP JUMPDEST SWAP3 SWAP2 POP POP JUMP JUMPDEST PUSH1 0x0 DUP2 SWAP1 POP PUSH2 0xD6 DUP3 PUSH2 0x11C JUMP JUMPDEST SWAP2 SWAP1 POP JUMP JUMPDEST PUSH1 0x0 PUSH2 0xE6 DUP3 PUSH2 0xC8 JUMP JUMPDEST SWAP1 POP SWAP2 SWAP1 POP JUMP JUMPDEST PUSH32 0x4E487B7100000000000000000000000000000000000000000000000000000000 PUSH1 0x0 MSTORE PUSH1 0x21 PUSH1 0x4 MSTORE PUSH1 0x24 PUSH1 0x0 REVERT JUMPDEST PUSH1 0x6 DUP2 LT PUSH2 0x12D JUMPI PUSH2 0x12C PUSH2 0xED JUMP JUMPDEST JUMPDEST POP JUMP INVALID LOG2 PUSH5 0x6970667358 0x22 SLT KECCAK256 ISZERO 0xCE 0xFC LOG1 DUP2 SLT GAS 0x25 LOG4 LOG0 0xBC GT PUSH31 0x7720C480BAABF1EAE92DFB9C0E3B5EA660D1EA64736F6C6343000807003300 "
				},
				"gasEstimates": {
					"creation": {
						"codeDepositCost": "71600",
						"executionCost": "123",
						"totalCost": "71723"
					},
					"external": {
						"Status()": "2535",
						"get()": "2568"
					}
				},
				"methodIdentifiers": {
					"Status()": "45f09ce9",
					"get()": "6d4ce63c"
				}
			},
			"storageLayout": {
				"storage": [
					{
						"astId": 11,
						"contract": "13thOct/enum3.sol:dev4tech",
						"label": "Status",
						"offset": 0,
						"slot": "0",
						"type": "t_enum(Shipping)8"
					}
				],
				"types": {
					"t_enum(Shipping)8": {
						"encoding": "inplace",
						"label": "enum dev4tech.Shipping",
						"numberOfBytes": "1"
					}
				}
			},
			"userdoc": {
				"kind": "user",
				"methods": {},
				"version": 1
			}
		}
	}
}