{
	"13thOct/classwork3.sol": {
		"dev4tech": {
			"abi": [
				{
					"inputs": [],
					"name": "Status",
					"outputs": [
						{
							"internalType": "enum dev4tech.List",
							"name": "",
							"type": "uint8"
						}
					],
					"stateMutability": "view",
					"type": "function"
				},
				{
					"inputs": [],
					"name": "get",
					"outputs": [
						{
							"internalType": "enum dev4tech.List",
							"name": "",
							"type": "uint8"
						}
					],
					"stateMutability": "view",
					"type": "function"
				},
				{
					"inputs": [
						{
							"internalType": "enum dev4tech.List",
							"name": "_x",
							"type": "uint8"
						}
					],
					"name": "set",
					"outputs": [],
					"stateMutability": "nonpayable",
					"type": "function"
				}
			],
			"devdoc": {
				"kind": "dev",
				"methods": {},
				"version": 1
			},
			"evm": {
				"assembly": "    /* \"13thOct/classwork3.sol\":60:405  contract dev4tech{\r... */\n  mstore(0x40, 0x80)\n  callvalue\n  dup1\n  iszero\n  tag_1\n  jumpi\n  0x00\n  dup1\n  revert\ntag_1:\n  pop\n  dataSize(sub_0)\n  dup1\n  dataOffset(sub_0)\n  0x00\n  codecopy\n  0x00\n  return\nstop\n\nsub_0: assembly {\n        /* \"13thOct/classwork3.sol\":60:405  contract dev4tech{\r... */\n      mstore(0x40, 0x80)\n      callvalue\n      dup1\n      iszero\n      tag_1\n      jumpi\n      0x00\n      dup1\n      revert\n    tag_1:\n      pop\n      jumpi(tag_2, lt(calldatasize, 0x04))\n      shr(0xe0, calldataload(0x00))\n      dup1\n      0x24b8ba5f\n      eq\n      tag_3\n      jumpi\n      dup1\n      0x45f09ce9\n      eq\n      tag_4\n      jumpi\n      dup1\n      0x6d4ce63c\n      eq\n      tag_5\n      jumpi\n    tag_2:\n      0x00\n      dup1\n      revert\n        /* \"13thOct/classwork3.sol\":339:400  function set(List _x) public {\r... */\n    tag_3:\n      tag_6\n      0x04\n      dup1\n      calldatasize\n      sub\n      dup2\n      add\n      swap1\n      tag_7\n      swap2\n      swap1\n      tag_8\n      jump\t// in\n    tag_7:\n      tag_9\n      jump\t// in\n    tag_6:\n      stop\n        /* \"13thOct/classwork3.sol\":230:248  List public Status */\n    tag_4:\n      tag_10\n      tag_11\n      jump\t// in\n    tag_10:\n      mload(0x40)\n      tag_12\n      swap2\n      swap1\n      tag_13\n      jump\t// in\n    tag_12:\n      mload(0x40)\n      dup1\n      swap2\n      sub\n      swap1\n      return\n        /* \"13thOct/classwork3.sol\":257:331  function get() public view returns(List){\r... */\n    tag_5:\n      tag_14\n      tag_15\n      jump\t// in\n    tag_14:\n      mload(0x40)\n      tag_16\n      swap2\n      swap1\n      tag_13\n      jump\t// in\n    tag_16:\n      mload(0x40)\n      dup1\n      swap2\n      sub\n      swap1\n      return\n        /* \"13thOct/classwork3.sol\":339:400  function set(List _x) public {\r... */\n    tag_9:\n        /* \"13thOct/classwork3.sol\":388:390  _x */\n      dup1\n        /* \"13thOct/classwork3.sol\":379:385  Status */\n      0x00\n      dup1\n        /* \"13thOct/classwork3.sol\":379:390  Status = _x */\n      0x0100\n      exp\n      dup2\n      sload\n      dup2\n      0xff\n      mul\n      not\n      and\n      swap1\n      dup4\n      0x03\n      dup2\n      gt\n      iszero\n      tag_18\n      jumpi\n      tag_19\n      tag_20\n      jump\t// in\n    tag_19:\n    tag_18:\n      mul\n      or\n      swap1\n      sstore\n      pop\n        /* \"13thOct/classwork3.sol\":339:400  function set(List _x) public {\r... */\n      pop\n      jump\t// out\n        /* \"13thOct/classwork3.sol\":230:248  List public Status */\n    tag_11:\n      0x00\n      dup1\n      sload\n      swap1\n      0x0100\n      exp\n      swap1\n      div\n      0xff\n      and\n      dup2\n      jump\t// out\n        /* \"13thOct/classwork3.sol\":257:331  function get() public view returns(List){\r... */\n    tag_15:\n        /* \"13thOct/classwork3.sol\":292:296  List */\n      0x00\n        /* \"13thOct/classwork3.sol\":315:321  Status */\n      dup1\n      0x00\n      swap1\n      sload\n      swap1\n      0x0100\n      exp\n      swap1\n      div\n      0xff\n      and\n        /* \"13thOct/classwork3.sol\":308:321  return Status */\n      swap1\n      pop\n        /* \"13thOct/classwork3.sol\":257:331  function get() public view returns(List){\r... */\n      swap1\n      jump\t// out\n        /* \"#utility.yul\":7:158   */\n    tag_23:\n        /* \"#utility.yul\":59:64   */\n      0x00\n        /* \"#utility.yul\":97:103   */\n      dup2\n        /* \"#utility.yul\":84:104   */\n      calldataload\n        /* \"#utility.yul\":75:104   */\n      swap1\n      pop\n        /* \"#utility.yul\":113:152   */\n      tag_25\n        /* \"#utility.yul\":146:151   */\n      dup2\n        /* \"#utility.yul\":113:152   */\n      tag_26\n      jump\t// in\n    tag_25:\n        /* \"#utility.yul\":7:158   */\n      swap3\n      swap2\n      pop\n      pop\n      jump\t// out\n        /* \"#utility.yul\":164:505   */\n    tag_8:\n        /* \"#utility.yul\":229:235   */\n      0x00\n        /* \"#utility.yul\":278:280   */\n      0x20\n        /* \"#utility.yul\":266:275   */\n      dup3\n        /* \"#utility.yul\":257:264   */\n      dup5\n        /* \"#utility.yul\":253:276   */\n      sub\n        /* \"#utility.yul\":249:281   */\n      slt\n        /* \"#utility.yul\":246:365   */\n      iszero\n      tag_28\n      jumpi\n        /* \"#utility.yul\":284:363   */\n      tag_29\n      tag_30\n      jump\t// in\n    tag_29:\n        /* \"#utility.yul\":246:365   */\n    tag_28:\n        /* \"#utility.yul\":404:405   */\n      0x00\n        /* \"#utility.yul\":429:488   */\n      tag_31\n        /* \"#utility.yul\":480:487   */\n      dup5\n        /* \"#utility.yul\":471:477   */\n      dup3\n        /* \"#utility.yul\":460:469   */\n      dup6\n        /* \"#utility.yul\":456:478   */\n      add\n        /* \"#utility.yul\":429:488   */\n      tag_23\n      jump\t// in\n    tag_31:\n        /* \"#utility.yul\":419:488   */\n      swap2\n      pop\n        /* \"#utility.yul\":375:498   */\n      pop\n        /* \"#utility.yul\":164:505   */\n      swap3\n      swap2\n      pop\n      pop\n      jump\t// out\n        /* \"#utility.yul\":511:650   */\n    tag_32:\n        /* \"#utility.yul\":602:643   */\n      tag_34\n        /* \"#utility.yul\":637:642   */\n      dup2\n        /* \"#utility.yul\":602:643   */\n      tag_35\n      jump\t// in\n    tag_34:\n        /* \"#utility.yul\":597:600   */\n      dup3\n        /* \"#utility.yul\":590:644   */\n      mstore\n        /* \"#utility.yul\":511:650   */\n      pop\n      pop\n      jump\t// out\n        /* \"#utility.yul\":656:886   */\n    tag_13:\n        /* \"#utility.yul\":753:757   */\n      0x00\n        /* \"#utility.yul\":791:793   */\n      0x20\n        /* \"#utility.yul\":780:789   */\n      dup3\n        /* \"#utility.yul\":776:794   */\n      add\n        /* \"#utility.yul\":768:794   */\n      swap1\n      pop\n        /* \"#utility.yul\":804:879   */\n      tag_37\n        /* \"#utility.yul\":876:877   */\n      0x00\n        /* \"#utility.yul\":865:874   */\n      dup4\n        /* \"#utility.yul\":861:878   */\n      add\n        /* \"#utility.yul\":852:858   */\n      dup5\n        /* \"#utility.yul\":804:879   */\n      tag_32\n      jump\t// in\n    tag_37:\n        /* \"#utility.yul\":656:886   */\n      swap3\n      swap2\n      pop\n      pop\n      jump\t// out\n        /* \"#utility.yul\":973:1096   */\n    tag_40:\n        /* \"#utility.yul\":1016:1023   */\n      0x00\n        /* \"#utility.yul\":1045:1050   */\n      dup2\n        /* \"#utility.yul\":1034:1050   */\n      swap1\n      pop\n        /* \"#utility.yul\":1051:1090   */\n      tag_42\n        /* \"#utility.yul\":1084:1089   */\n      dup3\n        /* \"#utility.yul\":1051:1090   */\n      tag_43\n      jump\t// in\n    tag_42:\n        /* \"#utility.yul\":973:1096   */\n      swap2\n      swap1\n      pop\n      jump\t// out\n        /* \"#utility.yul\":1102:1225   */\n    tag_35:\n        /* \"#utility.yul\":1156:1165   */\n      0x00\n        /* \"#utility.yul\":1189:1219   */\n      tag_45\n        /* \"#utility.yul\":1213:1218   */\n      dup3\n        /* \"#utility.yul\":1189:1219   */\n      tag_40\n      jump\t// in\n    tag_45:\n        /* \"#utility.yul\":1176:1219   */\n      swap1\n      pop\n        /* \"#utility.yul\":1102:1225   */\n      swap2\n      swap1\n      pop\n      jump\t// out\n        /* \"#utility.yul\":1231:1411   */\n    tag_20:\n        /* \"#utility.yul\":1279:1356   */\n      0x4e487b7100000000000000000000000000000000000000000000000000000000\n        /* \"#utility.yul\":1276:1277   */\n      0x00\n        /* \"#utility.yul\":1269:1357   */\n      mstore\n        /* \"#utility.yul\":1376:1380   */\n      0x21\n        /* \"#utility.yul\":1373:1374   */\n      0x04\n        /* \"#utility.yul\":1366:1381   */\n      mstore\n        /* \"#utility.yul\":1400:1404   */\n      0x24\n        /* \"#utility.yul\":1397:1398   */\n      0x00\n        /* \"#utility.yul\":1390:1405   */\n      revert\n        /* \"#utility.yul\":1540:1657   */\n    tag_30:\n        /* \"#utility.yul\":1649:1650   */\n      0x00\n        /* \"#utility.yul\":1646:1647   */\n      dup1\n        /* \"#utility.yul\":1639:1651   */\n      revert\n        /* \"#utility.yul\":1663:1774   */\n    tag_43:\n        /* \"#utility.yul\":1742:1743   */\n      0x04\n        /* \"#utility.yul\":1735:1740   */\n      dup2\n        /* \"#utility.yul\":1732:1744   */\n      lt\n        /* \"#utility.yul\":1722:1768   */\n      tag_51\n      jumpi\n        /* \"#utility.yul\":1748:1766   */\n      tag_52\n      tag_20\n      jump\t// in\n    tag_52:\n        /* \"#utility.yul\":1722:1768   */\n    tag_51:\n        /* \"#utility.yul\":1663:1774   */\n      pop\n      jump\t// out\n        /* \"#utility.yul\":1780:1885   */\n    tag_26:\n        /* \"#utility.yul\":1859:1860   */\n      0x04\n        /* \"#utility.yul\":1852:1857   */\n      dup2\n        /* \"#utility.yul\":1849:1861   */\n      lt\n        /* \"#utility.yul\":1839:1879   */\n      tag_54\n      jumpi\n        /* \"#utility.yul\":1875:1876   */\n      0x00\n        /* \"#utility.yul\":1872:1873   */\n      dup1\n        /* \"#utility.yul\":1865:1877   */\n      revert\n        /* \"#utility.yul\":1839:1879   */\n    tag_54:\n        /* \"#utility.yul\":1780:1885   */\n      pop\n      jump\t// out\n\n    auxdata: 0xa26469706673582212207d68afa0a2ae21b466f547e7a06d8eb7364374beb25d1b2de0205e8ba620bb2364736f6c63430008070033\n}\n",
				"bytecode": {
					"linkReferences": {},
					"object": "608060405234801561001057600080fd5b50610210806100206000396000f3fe608060405234801561001057600080fd5b50600436106100415760003560e01c806324b8ba5f1461004657806345f09ce9146100625780636d4ce63c14610080575b600080fd5b610060600480360381019061005b9190610106565b61009e565b005b61006a6100ca565b6040516100779190610142565b60405180910390f35b6100886100db565b6040516100959190610142565b60405180910390f35b806000806101000a81548160ff021916908360038111156100c2576100c1610182565b5b021790555050565b60008054906101000a900460ff1681565b60008060009054906101000a900460ff16905090565b600081359050610100816101ca565b92915050565b60006020828403121561011c5761011b6101b1565b5b600061012a848285016100f1565b91505092915050565b61013c81610170565b82525050565b60006020820190506101576000830184610133565b92915050565b600081905061016b826101b6565b919050565b600061017b8261015d565b9050919050565b7f4e487b7100000000000000000000000000000000000000000000000000000000600052602160045260246000fd5b600080fd5b600481106101c7576101c6610182565b5b50565b600481106101d757600080fd5b5056fea26469706673582212207d68afa0a2ae21b466f547e7a06d8eb7364374beb25d1b2de0205e8ba620bb2364736f6c63430008070033",
					"opcodes": "PUSH1 0x80 PUSH1 0x40 MSTORE CALLVALUE DUP1 ISZERO PUSH2 0x10 JUMPI PUSH1 0x0 DUP1 REVERT JUMPDEST POP PUSH2 0x210 DUP1 PUSH2 0x20 PUSH1 0x0 CODECOPY PUSH1 0x0 RETURN INVALID PUSH1 0x80 PUSH1 0x40 MSTORE CALLVALUE DUP1 ISZERO PUSH2 0x10 JUMPI PUSH1 0x0 DUP1 REVERT JUMPDEST POP PUSH1 0x4 CALLDATASIZE LT PUSH2 0x41 JUMPI PUSH1 0x0 CALLDATALOAD PUSH1 0xE0 SHR DUP1 PUSH4 0x24B8BA5F EQ PUSH2 0x46 JUMPI DUP1 PUSH4 0x45F09CE9 EQ PUSH2 0x62 JUMPI DUP1 PUSH4 0x6D4CE63C EQ PUSH2 0x80 JUMPI JUMPDEST PUSH1 0x0 DUP1 REVERT JUMPDEST PUSH2 0x60 PUSH1 0x4 DUP1 CALLDATASIZE SUB DUP2 ADD SWAP1 PUSH2 0x5B SWAP2 SWAP1 PUSH2 0x106 JUMP JUMPDEST PUSH2 0x9E JUMP JUMPDEST STOP JUMPDEST PUSH2 0x6A PUSH2 0xCA JUMP JUMPDEST PUSH1 0x40 MLOAD PUSH2 0x77 SWAP2 SWAP1 PUSH2 0x142 JUMP JUMPDEST PUSH1 0x40 MLOAD DUP1 SWAP2 SUB SWAP1 RETURN JUMPDEST PUSH2 0x88 PUSH2 0xDB JUMP JUMPDEST PUSH1 0x40 MLOAD PUSH2 0x95 SWAP2 SWAP1 PUSH2 0x142 JUMP JUMPDEST PUSH1 0x40 MLOAD DUP1 SWAP2 SUB SWAP1 RETURN JUMPDEST DUP1 PUSH1 0x0 DUP1 PUSH2 0x100 EXP DUP2 SLOAD DUP2 PUSH1 0xFF MUL NOT AND SWAP1 DUP4 PUSH1 0x3 DUP2 GT ISZERO PUSH2 0xC2 JUMPI PUSH2 0xC1 PUSH2 0x182 JUMP JUMPDEST JUMPDEST MUL OR SWAP1 SSTORE POP POP JUMP JUMPDEST PUSH1 0x0 DUP1 SLOAD SWAP1 PUSH2 0x100 EXP SWAP1 DIV PUSH1 0xFF AND DUP2 JUMP JUMPDEST PUSH1 0x0 DUP1 PUSH1 0x0 SWAP1 SLOAD SWAP1 PUSH2 0x100 EXP SWAP1 DIV PUSH1 0xFF AND SWAP1 POP SWAP1 JUMP JUMPDEST PUSH1 0x0 DUP2 CALLDATALOAD SWAP1 POP PUSH2 0x100 DUP2 PUSH2 0x1CA JUMP JUMPDEST SWAP3 SWAP2 POP POP JUMP JUMPDEST PUSH1 0x0 PUSH1 0x20 DUP3 DUP5 SUB SLT ISZERO PUSH2 0x11C JUMPI PUSH2 0x11B PUSH2 0x1B1 JUMP JUMPDEST JUMPDEST PUSH1 0x0 PUSH2 0x12A DUP5 DUP3 DUP6 ADD PUSH2 0xF1 JUMP JUMPDEST SWAP2 POP POP SWAP3 SWAP2 POP POP JUMP JUMPDEST PUSH2 0x13C DUP2 PUSH2 0x170 JUMP JUMPDEST DUP3 MSTORE POP POP JUMP JUMPDEST PUSH1 0x0 PUSH1 0x20 DUP3 ADD SWAP1 POP PUSH2 0x157 PUSH1 0x0 DUP4 ADD DUP5 PUSH2 0x133 JUMP JUMPDEST SWAP3 SWAP2 POP POP JUMP JUMPDEST PUSH1 0x0 DUP2 SWAP1 POP PUSH2 0x16B DUP3 PUSH2 0x1B6 JUMP JUMPDEST SWAP2 SWAP1 POP JUMP JUMPDEST PUSH1 0x0 PUSH2 0x17B DUP3 PUSH2 0x15D JUMP JUMPDEST SWAP1 POP SWAP2 SWAP1 POP JUMP JUMPDEST PUSH32 0x4E487B7100000000000000000000000000000000000000000000000000000000 PUSH1 0x0 MSTORE PUSH1 0x21 PUSH1 0x4 MSTORE PUSH1 0x24 PUSH1 0x0 REVERT JUMPDEST PUSH1 0x0 DUP1 REVERT JUMPDEST PUSH1 0x4 DUP2 LT PUSH2 0x1C7 JUMPI PUSH2 0x1C6 PUSH2 0x182 JUMP JUMPDEST JUMPDEST POP JUMP JUMPDEST PUSH1 0x4 DUP2 LT PUSH2 0x1D7 JUMPI PUSH1 0x0 DUP1 REVERT JUMPDEST POP JUMP INVALID LOG2 PUSH5 0x6970667358 0x22 SLT KECCAK256 PUSH30 0x68AFA0A2AE21B466F547E7A06D8EB7364374BEB25D1B2DE0205E8BA620BB 0x23 PUSH5 0x736F6C6343 STOP ADDMOD SMOD STOP CALLER "
				},
				"gasEstimates": {
					"creation": {
						"codeDepositCost": "105600",
						"executionCost": "153",
						"totalCost": "105753"
					},
					"external": {
						"Status()": "2557",
						"get()": "2590",
						"set(uint8)": "24628"
					}
				},
				"methodIdentifiers": {
					"Status()": "45f09ce9",
					"get()": "6d4ce63c",
					"set(uint8)": "24b8ba5f"
				}
			},
			"storageLayout": {
				"storage": [
					{
						"astId": 9,
						"contract": "13thOct/classwork3.sol:dev4tech",
						"label": "Status",
						"offset": 0,
						"slot": "0",
						"type": "t_enum(List)6"
					}
				],
				"types": {
					"t_enum(List)6": {
						"encoding": "inplace",
						"label": "enum dev4tech.List",
						"numberOfBytes": "1"
					}
				}
			},
			"userdoc": {
				"kind": "user",
				"methods": {},
				"version": 1
			}
		}
	}
}