{
	"13thOct/enum4.sol": {
		"dev4tech": {
			"abi": [
				{
					"inputs": [],
					"name": "Pending",
					"outputs": [],
					"stateMutability": "nonpayable",
					"type": "function"
				},
				{
					"inputs": [],
					"name": "Shipped",
					"outputs": [],
					"stateMutability": "nonpayable",
					"type": "function"
				},
				{
					"inputs": [],
					"name": "Status",
					"outputs": [
						{
							"internalType": "enum dev4tech.Shipping",
							"name": "",
							"type": "uint8"
						}
					],
					"stateMutability": "view",
					"type": "function"
				},
				{
					"inputs": [],
					"name": "get",
					"outputs": [
						{
							"internalType": "enum dev4tech.Shipping",
							"name": "",
							"type": "uint8"
						}
					],
					"stateMutability": "view",
					"type": "function"
				},
				{
					"inputs": [
						{
							"internalType": "enum dev4tech.Shipping",
							"name": "_x",
							"type": "uint8"
						}
					],
					"name": "set",
					"outputs": [],
					"stateMutability": "nonpayable",
					"type": "function"
				}
			],
			"devdoc": {
				"kind": "dev",
				"methods": {},
				"version": 1
			},
			"evm": {
				"assembly": "    /* \"13thOct/enum4.sol\":60:732  contract dev4tech{\r... */\n  mstore(0x40, 0x80)\n  callvalue\n  dup1\n  iszero\n  tag_1\n  jumpi\n  0x00\n  dup1\n  revert\ntag_1:\n  pop\n  dataSize(sub_0)\n  dup1\n  dataOffset(sub_0)\n  0x00\n  codecopy\n  0x00\n  return\nstop\n\nsub_0: assembly {\n        /* \"13thOct/enum4.sol\":60:732  contract dev4tech{\r... */\n      mstore(0x40, 0x80)\n      callvalue\n      dup1\n      iszero\n      tag_1\n      jumpi\n      0x00\n      dup1\n      revert\n    tag_1:\n      pop\n      jumpi(tag_2, lt(calldatasize, 0x04))\n      shr(0xe0, calldataload(0x00))\n      dup1\n      0x24b8ba5f\n      eq\n      tag_3\n      jumpi\n      dup1\n      0x45f09ce9\n      eq\n      tag_4\n      jumpi\n      dup1\n      0x6d4ce63c\n      eq\n      tag_5\n      jumpi\n      dup1\n      0x6df20390\n      eq\n      tag_6\n      jumpi\n      dup1\n      0x7e59301e\n      eq\n      tag_7\n      jumpi\n    tag_2:\n      0x00\n      dup1\n      revert\n        /* \"13thOct/enum4.sol\":427:492  function set(Shipping _x) public {\r... */\n    tag_3:\n      tag_8\n      0x04\n      dup1\n      calldatasize\n      sub\n      dup2\n      add\n      swap1\n      tag_9\n      swap2\n      swap1\n      tag_10\n      jump\t// in\n    tag_9:\n      tag_11\n      jump\t// in\n    tag_8:\n      stop\n        /* \"13thOct/enum4.sol\":310:332  Shipping public Status */\n    tag_4:\n      tag_12\n      tag_13\n      jump\t// in\n    tag_12:\n      mload(0x40)\n      tag_14\n      swap2\n      swap1\n      tag_15\n      jump\t// in\n    tag_14:\n      mload(0x40)\n      dup1\n      swap2\n      sub\n      swap1\n      return\n        /* \"13thOct/enum4.sol\":341:419  function get() public view returns(Shipping){\r... */\n    tag_5:\n      tag_16\n      tag_17\n      jump\t// in\n    tag_16:\n      mload(0x40)\n      tag_18\n      swap2\n      swap1\n      tag_15\n      jump\t// in\n    tag_18:\n      mload(0x40)\n      dup1\n      swap2\n      sub\n      swap1\n      return\n        /* \"13thOct/enum4.sol\":553:651  function Pending() public {\r... */\n    tag_6:\n      tag_19\n      tag_20\n      jump\t// in\n    tag_19:\n      stop\n        /* \"13thOct/enum4.sol\":659:727  function Shipped() public {\r... */\n    tag_7:\n      tag_21\n      tag_22\n      jump\t// in\n    tag_21:\n      stop\n        /* \"13thOct/enum4.sol\":427:492  function set(Shipping _x) public {\r... */\n    tag_11:\n        /* \"13thOct/enum4.sol\":480:482  _x */\n      dup1\n        /* \"13thOct/enum4.sol\":471:477  Status */\n      0x00\n      dup1\n        /* \"13thOct/enum4.sol\":471:482  Status = _x */\n      0x0100\n      exp\n      dup2\n      sload\n      dup2\n      0xff\n      mul\n      not\n      and\n      swap1\n      dup4\n      0x05\n      dup2\n      gt\n      iszero\n      tag_24\n      jumpi\n      tag_25\n      tag_26\n      jump\t// in\n    tag_25:\n    tag_24:\n      mul\n      or\n      swap1\n      sstore\n      pop\n        /* \"13thOct/enum4.sol\":427:492  function set(Shipping _x) public {\r... */\n      pop\n      jump\t// out\n        /* \"13thOct/enum4.sol\":310:332  Shipping public Status */\n    tag_13:\n      0x00\n      dup1\n      sload\n      swap1\n      0x0100\n      exp\n      swap1\n      div\n      0xff\n      and\n      dup2\n      jump\t// out\n        /* \"13thOct/enum4.sol\":341:419  function get() public view returns(Shipping){\r... */\n    tag_17:\n        /* \"13thOct/enum4.sol\":376:384  Shipping */\n      0x00\n        /* \"13thOct/enum4.sol\":403:409  Status */\n      dup1\n      0x00\n      swap1\n      sload\n      swap1\n      0x0100\n      exp\n      swap1\n      div\n      0xff\n      and\n        /* \"13thOct/enum4.sol\":396:409  return Status */\n      swap1\n      pop\n        /* \"13thOct/enum4.sol\":341:419  function get() public view returns(Shipping){\r... */\n      swap1\n      jump\t// out\n        /* \"13thOct/enum4.sol\":553:651  function Pending() public {\r... */\n    tag_20:\n        /* \"13thOct/enum4.sol\":599:615  Shipping.Pending */\n      0x01\n        /* \"13thOct/enum4.sol\":590:596  Status */\n      0x00\n      dup1\n        /* \"13thOct/enum4.sol\":590:615  Status = Shipping.Pending */\n      0x0100\n      exp\n      dup2\n      sload\n      dup2\n      0xff\n      mul\n      not\n      and\n      swap1\n      dup4\n      0x05\n      dup2\n      gt\n      iszero\n      tag_29\n      jumpi\n      tag_30\n      tag_26\n      jump\t// in\n    tag_30:\n    tag_29:\n      mul\n      or\n      swap1\n      sstore\n      pop\n        /* \"13thOct/enum4.sol\":553:651  function Pending() public {\r... */\n      jump\t// out\n        /* \"13thOct/enum4.sol\":659:727  function Shipped() public {\r... */\n    tag_22:\n        /* \"13thOct/enum4.sol\":701:717  Shipping.Shipped */\n      0x02\n        /* \"13thOct/enum4.sol\":692:698  Status */\n      0x00\n      dup1\n        /* \"13thOct/enum4.sol\":692:717  Status = Shipping.Shipped */\n      0x0100\n      exp\n      dup2\n      sload\n      dup2\n      0xff\n      mul\n      not\n      and\n      swap1\n      dup4\n      0x05\n      dup2\n      gt\n      iszero\n      tag_32\n      jumpi\n      tag_33\n      tag_26\n      jump\t// in\n    tag_33:\n    tag_32:\n      mul\n      or\n      swap1\n      sstore\n      pop\n        /* \"13thOct/enum4.sol\":659:727  function Shipped() public {\r... */\n      jump\t// out\n        /* \"#utility.yul\":7:166   */\n    tag_35:\n        /* \"#utility.yul\":63:68   */\n      0x00\n        /* \"#utility.yul\":101:107   */\n      dup2\n        /* \"#utility.yul\":88:108   */\n      calldataload\n        /* \"#utility.yul\":79:108   */\n      swap1\n      pop\n        /* \"#utility.yul\":117:160   */\n      tag_37\n        /* \"#utility.yul\":154:159   */\n      dup2\n        /* \"#utility.yul\":117:160   */\n      tag_38\n      jump\t// in\n    tag_37:\n        /* \"#utility.yul\":7:166   */\n      swap3\n      swap2\n      pop\n      pop\n      jump\t// out\n        /* \"#utility.yul\":172:521   */\n    tag_10:\n        /* \"#utility.yul\":241:247   */\n      0x00\n        /* \"#utility.yul\":290:292   */\n      0x20\n        /* \"#utility.yul\":278:287   */\n      dup3\n        /* \"#utility.yul\":269:276   */\n      dup5\n        /* \"#utility.yul\":265:288   */\n      sub\n        /* \"#utility.yul\":261:293   */\n      slt\n        /* \"#utility.yul\":258:377   */\n      iszero\n      tag_40\n      jumpi\n        /* \"#utility.yul\":296:375   */\n      tag_41\n      tag_42\n      jump\t// in\n    tag_41:\n        /* \"#utility.yul\":258:377   */\n    tag_40:\n        /* \"#utility.yul\":416:417   */\n      0x00\n        /* \"#utility.yul\":441:504   */\n      tag_43\n        /* \"#utility.yul\":496:503   */\n      dup5\n        /* \"#utility.yul\":487:493   */\n      dup3\n        /* \"#utility.yul\":476:485   */\n      dup6\n        /* \"#utility.yul\":472:494   */\n      add\n        /* \"#utility.yul\":441:504   */\n      tag_35\n      jump\t// in\n    tag_43:\n        /* \"#utility.yul\":431:504   */\n      swap2\n      pop\n        /* \"#utility.yul\":387:514   */\n      pop\n        /* \"#utility.yul\":172:521   */\n      swap3\n      swap2\n      pop\n      pop\n      jump\t// out\n        /* \"#utility.yul\":527:674   */\n    tag_44:\n        /* \"#utility.yul\":622:667   */\n      tag_46\n        /* \"#utility.yul\":661:666   */\n      dup2\n        /* \"#utility.yul\":622:667   */\n      tag_47\n      jump\t// in\n    tag_46:\n        /* \"#utility.yul\":617:620   */\n      dup3\n        /* \"#utility.yul\":610:668   */\n      mstore\n        /* \"#utility.yul\":527:674   */\n      pop\n      pop\n      jump\t// out\n        /* \"#utility.yul\":680:918   */\n    tag_15:\n        /* \"#utility.yul\":781:785   */\n      0x00\n        /* \"#utility.yul\":819:821   */\n      0x20\n        /* \"#utility.yul\":808:817   */\n      dup3\n        /* \"#utility.yul\":804:822   */\n      add\n        /* \"#utility.yul\":796:822   */\n      swap1\n      pop\n        /* \"#utility.yul\":832:911   */\n      tag_49\n        /* \"#utility.yul\":908:909   */\n      0x00\n        /* \"#utility.yul\":897:906   */\n      dup4\n        /* \"#utility.yul\":893:910   */\n      add\n        /* \"#utility.yul\":884:890   */\n      dup5\n        /* \"#utility.yul\":832:911   */\n      tag_44\n      jump\t// in\n    tag_49:\n        /* \"#utility.yul\":680:918   */\n      swap3\n      swap2\n      pop\n      pop\n      jump\t// out\n        /* \"#utility.yul\":1005:1136   */\n    tag_52:\n        /* \"#utility.yul\":1052:1059   */\n      0x00\n        /* \"#utility.yul\":1081:1086   */\n      dup2\n        /* \"#utility.yul\":1070:1086   */\n      swap1\n      pop\n        /* \"#utility.yul\":1087:1130   */\n      tag_54\n        /* \"#utility.yul\":1124:1129   */\n      dup3\n        /* \"#utility.yul\":1087:1130   */\n      tag_55\n      jump\t// in\n    tag_54:\n        /* \"#utility.yul\":1005:1136   */\n      swap2\n      swap1\n      pop\n      jump\t// out\n        /* \"#utility.yul\":1142:1273   */\n    tag_47:\n        /* \"#utility.yul\":1200:1209   */\n      0x00\n        /* \"#utility.yul\":1233:1267   */\n      tag_57\n        /* \"#utility.yul\":1261:1266   */\n      dup3\n        /* \"#utility.yul\":1233:1267   */\n      tag_52\n      jump\t// in\n    tag_57:\n        /* \"#utility.yul\":1220:1267   */\n      swap1\n      pop\n        /* \"#utility.yul\":1142:1273   */\n      swap2\n      swap1\n      pop\n      jump\t// out\n        /* \"#utility.yul\":1279:1459   */\n    tag_26:\n        /* \"#utility.yul\":1327:1404   */\n      0x4e487b7100000000000000000000000000000000000000000000000000000000\n        /* \"#utility.yul\":1324:1325   */\n      0x00\n        /* \"#utility.yul\":1317:1405   */\n      mstore\n        /* \"#utility.yul\":1424:1428   */\n      0x21\n        /* \"#utility.yul\":1421:1422   */\n      0x04\n        /* \"#utility.yul\":1414:1429   */\n      mstore\n        /* \"#utility.yul\":1448:1452   */\n      0x24\n        /* \"#utility.yul\":1445:1446   */\n      0x00\n        /* \"#utility.yul\":1438:1453   */\n      revert\n        /* \"#utility.yul\":1588:1705   */\n    tag_42:\n        /* \"#utility.yul\":1697:1698   */\n      0x00\n        /* \"#utility.yul\":1694:1695   */\n      dup1\n        /* \"#utility.yul\":1687:1699   */\n      revert\n        /* \"#utility.yul\":1711:1826   */\n    tag_55:\n        /* \"#utility.yul\":1794:1795   */\n      0x06\n        /* \"#utility.yul\":1787:1792   */\n      dup2\n        /* \"#utility.yul\":1784:1796   */\n      lt\n        /* \"#utility.yul\":1774:1820   */\n      tag_63\n      jumpi\n        /* \"#utility.yul\":1800:1818   */\n      tag_64\n      tag_26\n      jump\t// in\n    tag_64:\n        /* \"#utility.yul\":1774:1820   */\n    tag_63:\n        /* \"#utility.yul\":1711:1826   */\n      pop\n      jump\t// out\n        /* \"#utility.yul\":1832:1941   */\n    tag_38:\n        /* \"#utility.yul\":1915:1916   */\n      0x06\n        /* \"#utility.yul\":1908:1913   */\n      dup2\n        /* \"#utility.yul\":1905:1917   */\n      lt\n        /* \"#utility.yul\":1895:1935   */\n      tag_66\n      jumpi\n        /* \"#utility.yul\":1931:1932   */\n      0x00\n        /* \"#utility.yul\":1928:1929   */\n      dup1\n        /* \"#utility.yul\":1921:1933   */\n      revert\n        /* \"#utility.yul\":1895:1935   */\n    tag_66:\n        /* \"#utility.yul\":1832:1941   */\n      pop\n      jump\t// out\n\n    auxdata: 0xa264697066735822122057f0d792e0c55ab5b7da0a9a24d47ab877af51e4b7090a12da5798aa90cd461564736f6c63430008070033\n}\n",
				"bytecode": {
					"linkReferences": {},
					"object": "608060405234801561001057600080fd5b50610292806100206000396000f3fe608060405234801561001057600080fd5b50600436106100575760003560e01c806324b8ba5f1461005c57806345f09ce9146100785780636d4ce63c146100965780636df20390146100b45780637e59301e146100be575b600080fd5b61007660048036038101906100719190610188565b6100c8565b005b6100806100f4565b60405161008d91906101c4565b60405180910390f35b61009e610105565b6040516100ab91906101c4565b60405180910390f35b6100bc61011b565b005b6100c6610147565b005b806000806101000a81548160ff021916908360058111156100ec576100eb610204565b5b021790555050565b60008054906101000a900460ff1681565b60008060009054906101000a900460ff16905090565b60016000806101000a81548160ff021916908360058111156101405761013f610204565b5b0217905550565b60026000806101000a81548160ff0219169083600581111561016c5761016b610204565b5b0217905550565b6000813590506101828161024c565b92915050565b60006020828403121561019e5761019d610233565b5b60006101ac84828501610173565b91505092915050565b6101be816101f2565b82525050565b60006020820190506101d960008301846101b5565b92915050565b60008190506101ed82610238565b919050565b60006101fd826101df565b9050919050565b7f4e487b7100000000000000000000000000000000000000000000000000000000600052602160045260246000fd5b600080fd5b6006811061024957610248610204565b5b50565b6006811061025957600080fd5b5056fea264697066735822122057f0d792e0c55ab5b7da0a9a24d47ab877af51e4b7090a12da5798aa90cd461564736f6c63430008070033",
					"opcodes": "PUSH1 0x80 PUSH1 0x40 MSTORE CALLVALUE DUP1 ISZERO PUSH2 0x10 JUMPI PUSH1 0x0 DUP1 REVERT JUMPDEST POP PUSH2 0x292 DUP1 PUSH2 0x20 PUSH1 0x0 CODECOPY PUSH1 0x0 RETURN INVALID PUSH1 0x80 PUSH1 0x40 MSTORE CALLVALUE DUP1 ISZERO PUSH2 0x10 JUMPI PUSH1 0x0 DUP1 REVERT JUMPDEST POP PUSH1 0x4 CALLDATASIZE LT PUSH2 0x57 JUMPI PUSH1 0x0 CALLDATALOAD PUSH1 0xE0 SHR DUP1 PUSH4 0x24B8BA5F EQ PUSH2 0x5C JUMPI DUP1 PUSH4 0x45F09CE9 EQ PUSH2 0x78 JUMPI DUP1 PUSH4 0x6D4CE63C EQ PUSH2 0x96 JUMPI DUP1 PUSH4 0x6DF20390 EQ PUSH2 0xB4 JUMPI DUP1 PUSH4 0x7E59301E EQ PUSH2 0xBE JUMPI JUMPDEST PUSH1 0x0 DUP1 REVERT JUMPDEST PUSH2 0x76 PUSH1 0x4 DUP1 CALLDATASIZE SUB DUP2 ADD SWAP1 PUSH2 0x71 SWAP2 SWAP1 PUSH2 0x188 JUMP JUMPDEST PUSH2 0xC8 JUMP JUMPDEST STOP JUMPDEST PUSH2 0x80 PUSH2 0xF4 JUMP JUMPDEST PUSH1 0x40 MLOAD PUSH2 0x8D SWAP2 SWAP1 PUSH2 0x1C4 JUMP JUMPDEST PUSH1 0x40 MLOAD DUP1 SWAP2 SUB SWAP1 RETURN JUMPDEST PUSH2 0x9E PUSH2 0x105 JUMP JUMPDEST PUSH1 0x40 MLOAD PUSH2 0xAB SWAP2 SWAP1 PUSH2 0x1C4 JUMP JUMPDEST PUSH1 0x40 MLOAD DUP1 SWAP2 SUB SWAP1 RETURN JUMPDEST PUSH2 0xBC PUSH2 0x11B JUMP JUMPDEST STOP JUMPDEST PUSH2 0xC6 PUSH2 0x147 JUMP JUMPDEST STOP JUMPDEST DUP1 PUSH1 0x0 DUP1 PUSH2 0x100 EXP DUP2 SLOAD DUP2 PUSH1 0xFF MUL NOT AND SWAP1 DUP4 PUSH1 0x5 DUP2 GT ISZERO PUSH2 0xEC JUMPI PUSH2 0xEB PUSH2 0x204 JUMP JUMPDEST JUMPDEST MUL OR SWAP1 SSTORE POP POP JUMP JUMPDEST PUSH1 0x0 DUP1 SLOAD SWAP1 PUSH2 0x100 EXP SWAP1 DIV PUSH1 0xFF AND DUP2 JUMP JUMPDEST PUSH1 0x0 DUP1 PUSH1 0x0 SWAP1 SLOAD SWAP1 PUSH2 0x100 EXP SWAP1 DIV PUSH1 0xFF AND SWAP1 POP SWAP1 JUMP JUMPDEST PUSH1 0x1 PUSH1 0x0 DUP1 PUSH2 0x100 EXP DUP2 SLOAD DUP2 PUSH1 0xFF MUL NOT AND SWAP1 DUP4 PUSH1 0x5 DUP2 GT ISZERO PUSH2 0x140 JUMPI PUSH2 0x13F PUSH2 0x204 JUMP JUMPDEST JUMPDEST MUL OR SWAP1 SSTORE POP JUMP JUMPDEST PUSH1 0x2 PUSH1 0x0 DUP1 PUSH2 0x100 EXP DUP2 SLOAD DUP2 PUSH1 0xFF MUL NOT AND SWAP1 DUP4 PUSH1 0x5 DUP2 GT ISZERO PUSH2 0x16C JUMPI PUSH2 0x16B PUSH2 0x204 JUMP JUMPDEST JUMPDEST MUL OR SWAP1 SSTORE POP JUMP JUMPDEST PUSH1 0x0 DUP2 CALLDATALOAD SWAP1 POP PUSH2 0x182 DUP2 PUSH2 0x24C JUMP JUMPDEST SWAP3 SWAP2 POP POP JUMP JUMPDEST PUSH1 0x0 PUSH1 0x20 DUP3 DUP5 SUB SLT ISZERO PUSH2 0x19E JUMPI PUSH2 0x19D PUSH2 0x233 JUMP JUMPDEST JUMPDEST PUSH1 0x0 PUSH2 0x1AC DUP5 DUP3 DUP6 ADD PUSH2 0x173 JUMP JUMPDEST SWAP2 POP POP SWAP3 SWAP2 POP POP JUMP JUMPDEST PUSH2 0x1BE DUP2 PUSH2 0x1F2 JUMP JUMPDEST DUP3 MSTORE POP POP JUMP JUMPDEST PUSH1 0x0 PUSH1 0x20 DUP3 ADD SWAP1 POP PUSH2 0x1D9 PUSH1 0x0 DUP4 ADD DUP5 PUSH2 0x1B5 JUMP JUMPDEST SWAP3 SWAP2 POP POP JUMP JUMPDEST PUSH1 0x0 DUP2 SWAP1 POP PUSH2 0x1ED DUP3 PUSH2 0x238 JUMP JUMPDEST SWAP2 SWAP1 POP JUMP JUMPDEST PUSH1 0x0 PUSH2 0x1FD DUP3 PUSH2 0x1DF JUMP JUMPDEST SWAP1 POP SWAP2 SWAP1 POP JUMP JUMPDEST PUSH32 0x4E487B7100000000000000000000000000000000000000000000000000000000 PUSH1 0x0 MSTORE PUSH1 0x21 PUSH1 0x4 MSTORE PUSH1 0x24 PUSH1 0x0 REVERT JUMPDEST PUSH1 0x0 DUP1 REVERT JUMPDEST PUSH1 0x6 DUP2 LT PUSH2 0x249 JUMPI PUSH2 0x248 PUSH2 0x204 JUMP JUMPDEST JUMPDEST POP JUMP JUMPDEST PUSH1 0x6 DUP2 LT PUSH2 0x259 JUMPI PUSH1 0x0 DUP1 REVERT JUMPDEST POP JUMP INVALID LOG2 PUSH5 0x6970667358 0x22 SLT KECCAK256 JUMPI CREATE 0xD7 SWAP3 0xE0 0xC5 GAS 0xB5 0xB7 0xDA EXP SWAP11 0x24 0xD4 PUSH27 0xB877AF51E4B7090A12DA5798AA90CD461564736F6C634300080700 CALLER "
				},
				"gasEstimates": {
					"creation": {
						"codeDepositCost": "131600",
						"executionCost": "177",
						"totalCost": "131777"
					},
					"external": {
						"Pending()": "24475",
						"Shipped()": "24497",
						"Status()": "2557",
						"get()": "2590",
						"set(uint8)": "24628"
					}
				},
				"methodIdentifiers": {
					"Pending()": "6df20390",
					"Shipped()": "7e59301e",
					"Status()": "45f09ce9",
					"get()": "6d4ce63c",
					"set(uint8)": "24b8ba5f"
				}
			},
			"storageLayout": {
				"storage": [
					{
						"astId": 11,
						"contract": "13thOct/enum4.sol:dev4tech",
						"label": "Status",
						"offset": 0,
						"slot": "0",
						"type": "t_enum(Shipping)8"
					}
				],
				"types": {
					"t_enum(Shipping)8": {
						"encoding": "inplace",
						"label": "enum dev4tech.Shipping",
						"numberOfBytes": "1"
					}
				}
			},
			"userdoc": {
				"kind": "user",
				"methods": {},
				"version": 1
			}
		}
	}
}