{
	"13thOct/classwork4.sol": {
		"dev4tech": {
			"abi": [
				{
					"inputs": [],
					"name": "Accepted",
					"outputs": [],
					"stateMutability": "nonpayable",
					"type": "function"
				},
				{
					"inputs": [],
					"name": "Cancelled",
					"outputs": [],
					"stateMutability": "nonpayable",
					"type": "function"
				},
				{
					"inputs": [],
					"name": "Pending",
					"outputs": [],
					"stateMutability": "nonpayable",
					"type": "function"
				},
				{
					"inputs": [],
					"name": "Rejected",
					"outputs": [],
					"stateMutability": "nonpayable",
					"type": "function"
				},
				{
					"inputs": [],
					"name": "Shipped",
					"outputs": [],
					"stateMutability": "nonpayable",
					"type": "function"
				},
				{
					"inputs": [],
					"name": "Status",
					"outputs": [
						{
							"internalType": "enum dev4tech.Shipping",
							"name": "",
							"type": "uint8"
						}
					],
					"stateMutability": "view",
					"type": "function"
				},
				{
					"inputs": [],
					"name": "get",
					"outputs": [
						{
							"internalType": "enum dev4tech.Shipping",
							"name": "",
							"type": "uint8"
						}
					],
					"stateMutability": "view",
					"type": "function"
				},
				{
					"inputs": [
						{
							"internalType": "enum dev4tech.Shipping",
							"name": "_x",
							"type": "uint8"
						}
					],
					"name": "set",
					"outputs": [],
					"stateMutability": "nonpayable",
					"type": "function"
				}
			],
			"devdoc": {
				"kind": "dev",
				"methods": {},
				"version": 1
			},
			"evm": {
				"assembly": "    /* \"13thOct/classwork4.sol\":60:981  contract dev4tech{\r... */\n  mstore(0x40, 0x80)\n  callvalue\n  dup1\n  iszero\n  tag_1\n  jumpi\n  0x00\n  dup1\n  revert\ntag_1:\n  pop\n  dataSize(sub_0)\n  dup1\n  dataOffset(sub_0)\n  0x00\n  codecopy\n  0x00\n  return\nstop\n\nsub_0: assembly {\n        /* \"13thOct/classwork4.sol\":60:981  contract dev4tech{\r... */\n      mstore(0x40, 0x80)\n      callvalue\n      dup1\n      iszero\n      tag_1\n      jumpi\n      0x00\n      dup1\n      revert\n    tag_1:\n      pop\n      jumpi(tag_2, lt(calldatasize, 0x04))\n      shr(0xe0, calldataload(0x00))\n      dup1\n      0x6d4ce63c\n      gt\n      tag_11\n      jumpi\n      dup1\n      0x6d4ce63c\n      eq\n      tag_7\n      jumpi\n      dup1\n      0x6df20390\n      eq\n      tag_8\n      jumpi\n      dup1\n      0x7e59301e\n      eq\n      tag_9\n      jumpi\n      dup1\n      0xefde6dcf\n      eq\n      tag_10\n      jumpi\n      jump(tag_2)\n    tag_11:\n      dup1\n      0x24b8ba5f\n      eq\n      tag_3\n      jumpi\n      dup1\n      0x33cf58f9\n      eq\n      tag_4\n      jumpi\n      dup1\n      0x45f09ce9\n      eq\n      tag_5\n      jumpi\n      dup1\n      0x63b95884\n      eq\n      tag_6\n      jumpi\n    tag_2:\n      0x00\n      dup1\n      revert\n        /* \"13thOct/classwork4.sol\":428:493  function set(Shipping _x) public {\r... */\n    tag_3:\n      tag_12\n      0x04\n      dup1\n      calldatasize\n      sub\n      dup2\n      add\n      swap1\n      tag_13\n      swap2\n      swap1\n      tag_14\n      jump\t// in\n    tag_13:\n      tag_15\n      jump\t// in\n    tag_12:\n      stop\n        /* \"13thOct/classwork4.sol\":740:810  function Accepted() public {\r... */\n    tag_4:\n      tag_16\n      tag_17\n      jump\t// in\n    tag_16:\n      stop\n        /* \"13thOct/classwork4.sol\":311:333  Shipping public Status */\n    tag_5:\n      tag_18\n      tag_19\n      jump\t// in\n    tag_18:\n      mload(0x40)\n      tag_20\n      swap2\n      swap1\n      tag_21\n      jump\t// in\n    tag_20:\n      mload(0x40)\n      dup1\n      swap2\n      sub\n      swap1\n      return\n        /* \"13thOct/classwork4.sol\":904:976  function Cancelled() public {\r... */\n    tag_6:\n      tag_22\n      tag_23\n      jump\t// in\n    tag_22:\n      stop\n        /* \"13thOct/classwork4.sol\":342:420  function get() public view returns(Shipping){\r... */\n    tag_7:\n      tag_24\n      tag_25\n      jump\t// in\n    tag_24:\n      mload(0x40)\n      tag_26\n      swap2\n      swap1\n      tag_21\n      jump\t// in\n    tag_26:\n      mload(0x40)\n      dup1\n      swap2\n      sub\n      swap1\n      return\n        /* \"13thOct/classwork4.sol\":554:652  function Pending() public {\r... */\n    tag_8:\n      tag_27\n      tag_28\n      jump\t// in\n    tag_27:\n      stop\n        /* \"13thOct/classwork4.sol\":660:728  function Shipped() public {\r... */\n    tag_9:\n      tag_29\n      tag_30\n      jump\t// in\n    tag_29:\n      stop\n        /* \"13thOct/classwork4.sol\":822:892  function Rejected() public {\r... */\n    tag_10:\n      tag_31\n      tag_32\n      jump\t// in\n    tag_31:\n      stop\n        /* \"13thOct/classwork4.sol\":428:493  function set(Shipping _x) public {\r... */\n    tag_15:\n        /* \"13thOct/classwork4.sol\":481:483  _x */\n      dup1\n        /* \"13thOct/classwork4.sol\":472:478  Status */\n      0x00\n      dup1\n        /* \"13thOct/classwork4.sol\":472:483  Status = _x */\n      0x0100\n      exp\n      dup2\n      sload\n      dup2\n      0xff\n      mul\n      not\n      and\n      swap1\n      dup4\n      0x05\n      dup2\n      gt\n      iszero\n      tag_34\n      jumpi\n      tag_35\n      tag_36\n      jump\t// in\n    tag_35:\n    tag_34:\n      mul\n      or\n      swap1\n      sstore\n      pop\n        /* \"13thOct/classwork4.sol\":428:493  function set(Shipping _x) public {\r... */\n      pop\n      jump\t// out\n        /* \"13thOct/classwork4.sol\":740:810  function Accepted() public {\r... */\n    tag_17:\n        /* \"13thOct/classwork4.sol\":783:800  Shipping.Accepted */\n      0x03\n        /* \"13thOct/classwork4.sol\":774:780  Status */\n      0x00\n      dup1\n        /* \"13thOct/classwork4.sol\":774:800  Status = Shipping.Accepted */\n      0x0100\n      exp\n      dup2\n      sload\n      dup2\n      0xff\n      mul\n      not\n      and\n      swap1\n      dup4\n      0x05\n      dup2\n      gt\n      iszero\n      tag_38\n      jumpi\n      tag_39\n      tag_36\n      jump\t// in\n    tag_39:\n    tag_38:\n      mul\n      or\n      swap1\n      sstore\n      pop\n        /* \"13thOct/classwork4.sol\":740:810  function Accepted() public {\r... */\n      jump\t// out\n        /* \"13thOct/classwork4.sol\":311:333  Shipping public Status */\n    tag_19:\n      0x00\n      dup1\n      sload\n      swap1\n      0x0100\n      exp\n      swap1\n      div\n      0xff\n      and\n      dup2\n      jump\t// out\n        /* \"13thOct/classwork4.sol\":904:976  function Cancelled() public {\r... */\n    tag_23:\n        /* \"13thOct/classwork4.sol\":948:966  Shipping.Cancelled */\n      0x05\n        /* \"13thOct/classwork4.sol\":939:945  Status */\n      0x00\n      dup1\n        /* \"13thOct/classwork4.sol\":939:966  Status = Shipping.Cancelled */\n      0x0100\n      exp\n      dup2\n      sload\n      dup2\n      0xff\n      mul\n      not\n      and\n      swap1\n      dup4\n      0x05\n      dup2\n      gt\n      iszero\n      tag_41\n      jumpi\n      tag_42\n      tag_36\n      jump\t// in\n    tag_42:\n    tag_41:\n      mul\n      or\n      swap1\n      sstore\n      pop\n        /* \"13thOct/classwork4.sol\":904:976  function Cancelled() public {\r... */\n      jump\t// out\n        /* \"13thOct/classwork4.sol\":342:420  function get() public view returns(Shipping){\r... */\n    tag_25:\n        /* \"13thOct/classwork4.sol\":377:385  Shipping */\n      0x00\n        /* \"13thOct/classwork4.sol\":404:410  Status */\n      dup1\n      0x00\n      swap1\n      sload\n      swap1\n      0x0100\n      exp\n      swap1\n      div\n      0xff\n      and\n        /* \"13thOct/classwork4.sol\":397:410  return Status */\n      swap1\n      pop\n        /* \"13thOct/classwork4.sol\":342:420  function get() public view returns(Shipping){\r... */\n      swap1\n      jump\t// out\n        /* \"13thOct/classwork4.sol\":554:652  function Pending() public {\r... */\n    tag_28:\n        /* \"13thOct/classwork4.sol\":600:616  Shipping.Pending */\n      0x01\n        /* \"13thOct/classwork4.sol\":591:597  Status */\n      0x00\n      dup1\n        /* \"13thOct/classwork4.sol\":591:616  Status = Shipping.Pending */\n      0x0100\n      exp\n      dup2\n      sload\n      dup2\n      0xff\n      mul\n      not\n      and\n      swap1\n      dup4\n      0x05\n      dup2\n      gt\n      iszero\n      tag_45\n      jumpi\n      tag_46\n      tag_36\n      jump\t// in\n    tag_46:\n    tag_45:\n      mul\n      or\n      swap1\n      sstore\n      pop\n        /* \"13thOct/classwork4.sol\":554:652  function Pending() public {\r... */\n      jump\t// out\n        /* \"13thOct/classwork4.sol\":660:728  function Shipped() public {\r... */\n    tag_30:\n        /* \"13thOct/classwork4.sol\":702:718  Shipping.Shipped */\n      0x02\n        /* \"13thOct/classwork4.sol\":693:699  Status */\n      0x00\n      dup1\n        /* \"13thOct/classwork4.sol\":693:718  Status = Shipping.Shipped */\n      0x0100\n      exp\n      dup2\n      sload\n      dup2\n      0xff\n      mul\n      not\n      and\n      swap1\n      dup4\n      0x05\n      dup2\n      gt\n      iszero\n      tag_48\n      jumpi\n      tag_49\n      tag_36\n      jump\t// in\n    tag_49:\n    tag_48:\n      mul\n      or\n      swap1\n      sstore\n      pop\n        /* \"13thOct/classwork4.sol\":660:728  function Shipped() public {\r... */\n      jump\t// out\n        /* \"13thOct/classwork4.sol\":822:892  function Rejected() public {\r... */\n    tag_32:\n        /* \"13thOct/classwork4.sol\":865:882  Shipping.Rejected */\n      0x04\n        /* \"13thOct/classwork4.sol\":856:862  Status */\n      0x00\n      dup1\n        /* \"13thOct/classwork4.sol\":856:882  Status = Shipping.Rejected */\n      0x0100\n      exp\n      dup2\n      sload\n      dup2\n      0xff\n      mul\n      not\n      and\n      swap1\n      dup4\n      0x05\n      dup2\n      gt\n      iszero\n      tag_51\n      jumpi\n      tag_52\n      tag_36\n      jump\t// in\n    tag_52:\n    tag_51:\n      mul\n      or\n      swap1\n      sstore\n      pop\n        /* \"13thOct/classwork4.sol\":822:892  function Rejected() public {\r... */\n      jump\t// out\n        /* \"#utility.yul\":7:166   */\n    tag_54:\n        /* \"#utility.yul\":63:68   */\n      0x00\n        /* \"#utility.yul\":101:107   */\n      dup2\n        /* \"#utility.yul\":88:108   */\n      calldataload\n        /* \"#utility.yul\":79:108   */\n      swap1\n      pop\n        /* \"#utility.yul\":117:160   */\n      tag_56\n        /* \"#utility.yul\":154:159   */\n      dup2\n        /* \"#utility.yul\":117:160   */\n      tag_57\n      jump\t// in\n    tag_56:\n        /* \"#utility.yul\":7:166   */\n      swap3\n      swap2\n      pop\n      pop\n      jump\t// out\n        /* \"#utility.yul\":172:521   */\n    tag_14:\n        /* \"#utility.yul\":241:247   */\n      0x00\n        /* \"#utility.yul\":290:292   */\n      0x20\n        /* \"#utility.yul\":278:287   */\n      dup3\n        /* \"#utility.yul\":269:276   */\n      dup5\n        /* \"#utility.yul\":265:288   */\n      sub\n        /* \"#utility.yul\":261:293   */\n      slt\n        /* \"#utility.yul\":258:377   */\n      iszero\n      tag_59\n      jumpi\n        /* \"#utility.yul\":296:375   */\n      tag_60\n      tag_61\n      jump\t// in\n    tag_60:\n        /* \"#utility.yul\":258:377   */\n    tag_59:\n        /* \"#utility.yul\":416:417   */\n      0x00\n        /* \"#utility.yul\":441:504   */\n      tag_62\n        /* \"#utility.yul\":496:503   */\n      dup5\n        /* \"#utility.yul\":487:493   */\n      dup3\n        /* \"#utility.yul\":476:485   */\n      dup6\n        /* \"#utility.yul\":472:494   */\n      add\n        /* \"#utility.yul\":441:504   */\n      tag_54\n      jump\t// in\n    tag_62:\n        /* \"#utility.yul\":431:504   */\n      swap2\n      pop\n        /* \"#utility.yul\":387:514   */\n      pop\n        /* \"#utility.yul\":172:521   */\n      swap3\n      swap2\n      pop\n      pop\n      jump\t// out\n        /* \"#utility.yul\":527:674   */\n    tag_63:\n        /* \"#utility.yul\":622:667   */\n      tag_65\n        /* \"#utility.yul\":661:666   */\n      dup2\n        /* \"#utility.yul\":622:667   */\n      tag_66\n      jump\t// in\n    tag_65:\n        /* \"#utility.yul\":617:620   */\n      dup3\n        /* \"#utility.yul\":610:668   */\n      mstore\n        /* \"#utility.yul\":527:674   */\n      pop\n      pop\n      jump\t// out\n        /* \"#utility.yul\":680:918   */\n    tag_21:\n        /* \"#utility.yul\":781:785   */\n      0x00\n        /* \"#utility.yul\":819:821   */\n      0x20\n        /* \"#utility.yul\":808:817   */\n      dup3\n        /* \"#utility.yul\":804:822   */\n      add\n        /* \"#utility.yul\":796:822   */\n      swap1\n      pop\n        /* \"#utility.yul\":832:911   */\n      tag_68\n        /* \"#utility.yul\":908:909   */\n      0x00\n        /* \"#utility.yul\":897:906   */\n      dup4\n        /* \"#utility.yul\":893:910   */\n      add\n        /* \"#utility.yul\":884:890   */\n      dup5\n        /* \"#utility.yul\":832:911   */\n      tag_63\n      jump\t// in\n    tag_68:\n        /* \"#utility.yul\":680:918   */\n      swap3\n      swap2\n      pop\n      pop\n      jump\t// out\n        /* \"#utility.yul\":1005:1136   */\n    tag_71:\n        /* \"#utility.yul\":1052:1059   */\n      0x00\n        /* \"#utility.yul\":1081:1086   */\n      dup2\n        /* \"#utility.yul\":1070:1086   */\n      swap1\n      pop\n        /* \"#utility.yul\":1087:1130   */\n      tag_73\n        /* \"#utility.yul\":1124:1129   */\n      dup3\n        /* \"#utility.yul\":1087:1130   */\n      tag_74\n      jump\t// in\n    tag_73:\n        /* \"#utility.yul\":1005:1136   */\n      swap2\n      swap1\n      pop\n      jump\t// out\n        /* \"#utility.yul\":1142:1273   */\n    tag_66:\n        /* \"#utility.yul\":1200:1209   */\n      0x00\n        /* \"#utility.yul\":1233:1267   */\n      tag_76\n        /* \"#utility.yul\":1261:1266   */\n      dup3\n        /* \"#utility.yul\":1233:1267   */\n      tag_71\n      jump\t// in\n    tag_76:\n        /* \"#utility.yul\":1220:1267   */\n      swap1\n      pop\n        /* \"#utility.yul\":1142:1273   */\n      swap2\n      swap1\n      pop\n      jump\t// out\n        /* \"#utility.yul\":1279:1459   */\n    tag_36:\n        /* \"#utility.yul\":1327:1404   */\n      0x4e487b7100000000000000000000000000000000000000000000000000000000\n        /* \"#utility.yul\":1324:1325   */\n      0x00\n        /* \"#utility.yul\":1317:1405   */\n      mstore\n        /* \"#utility.yul\":1424:1428   */\n      0x21\n        /* \"#utility.yul\":1421:1422   */\n      0x04\n        /* \"#utility.yul\":1414:1429   */\n      mstore\n        /* \"#utility.yul\":1448:1452   */\n      0x24\n        /* \"#utility.yul\":1445:1446   */\n      0x00\n        /* \"#utility.yul\":1438:1453   */\n      revert\n        /* \"#utility.yul\":1588:1705   */\n    tag_61:\n        /* \"#utility.yul\":1697:1698   */\n      0x00\n        /* \"#utility.yul\":1694:1695   */\n      dup1\n        /* \"#utility.yul\":1687:1699   */\n      revert\n        /* \"#utility.yul\":1711:1826   */\n    tag_74:\n        /* \"#utility.yul\":1794:1795   */\n      0x06\n        /* \"#utility.yul\":1787:1792   */\n      dup2\n        /* \"#utility.yul\":1784:1796   */\n      lt\n        /* \"#utility.yul\":1774:1820   */\n      tag_82\n      jumpi\n        /* \"#utility.yul\":1800:1818   */\n      tag_83\n      tag_36\n      jump\t// in\n    tag_83:\n        /* \"#utility.yul\":1774:1820   */\n    tag_82:\n        /* \"#utility.yul\":1711:1826   */\n      pop\n      jump\t// out\n        /* \"#utility.yul\":1832:1941   */\n    tag_57:\n        /* \"#utility.yul\":1915:1916   */\n      0x06\n        /* \"#utility.yul\":1908:1913   */\n      dup2\n        /* \"#utility.yul\":1905:1917   */\n      lt\n        /* \"#utility.yul\":1895:1935   */\n      tag_85\n      jumpi\n        /* \"#utility.yul\":1931:1932   */\n      0x00\n        /* \"#utility.yul\":1928:1929   */\n      dup1\n        /* \"#utility.yul\":1921:1933   */\n      revert\n        /* \"#utility.yul\":1895:1935   */\n    tag_85:\n        /* \"#utility.yul\":1832:1941   */\n      pop\n      jump\t// out\n\n    auxdata: 0xa2646970667358221220e50e43431c4de814e3e1b939816408589eac297ee850886c9806f0c909ee7b6a64736f6c63430008070033\n}\n",
				"bytecode": {
					"linkReferences": {},
					"object": "608060405234801561001057600080fd5b50610365806100206000396000f3fe608060405234801561001057600080fd5b50600436106100885760003560e01c80636d4ce63c1161005b5780636d4ce63c146100db5780636df20390146100f95780637e59301e14610103578063efde6dcf1461010d57610088565b806324b8ba5f1461008d57806333cf58f9146100a957806345f09ce9146100b357806363b95884146100d1575b600080fd5b6100a760048036038101906100a2919061025b565b610117565b005b6100b1610143565b005b6100bb61016f565b6040516100c89190610297565b60405180910390f35b6100d9610180565b005b6100e36101ac565b6040516100f09190610297565b60405180910390f35b6101016101c2565b005b61010b6101ee565b005b61011561021a565b005b806000806101000a81548160ff0219169083600581111561013b5761013a6102d7565b5b021790555050565b60036000806101000a81548160ff02191690836005811115610168576101676102d7565b5b0217905550565b60008054906101000a900460ff1681565b60056000806101000a81548160ff021916908360058111156101a5576101a46102d7565b5b0217905550565b60008060009054906101000a900460ff16905090565b60016000806101000a81548160ff021916908360058111156101e7576101e66102d7565b5b0217905550565b60026000806101000a81548160ff02191690836005811115610213576102126102d7565b5b0217905550565b60046000806101000a81548160ff0219169083600581111561023f5761023e6102d7565b5b0217905550565b6000813590506102558161031f565b92915050565b60006020828403121561027157610270610306565b5b600061027f84828501610246565b91505092915050565b610291816102c5565b82525050565b60006020820190506102ac6000830184610288565b92915050565b60008190506102c08261030b565b919050565b60006102d0826102b2565b9050919050565b7f4e487b7100000000000000000000000000000000000000000000000000000000600052602160045260246000fd5b600080fd5b6006811061031c5761031b6102d7565b5b50565b6006811061032c57600080fd5b5056fea2646970667358221220e50e43431c4de814e3e1b939816408589eac297ee850886c9806f0c909ee7b6a64736f6c63430008070033",
					"opcodes": "PUSH1 0x80 PUSH1 0x40 MSTORE CALLVALUE DUP1 ISZERO PUSH2 0x10 JUMPI PUSH1 0x0 DUP1 REVERT JUMPDEST POP PUSH2 0x365 DUP1 PUSH2 0x20 PUSH1 0x0 CODECOPY PUSH1 0x0 RETURN INVALID PUSH1 0x80 PUSH1 0x40 MSTORE CALLVALUE DUP1 ISZERO PUSH2 0x10 JUMPI PUSH1 0x0 DUP1 REVERT JUMPDEST POP PUSH1 0x4 CALLDATASIZE LT PUSH2 0x88 JUMPI PUSH1 0x0 CALLDATALOAD PUSH1 0xE0 SHR DUP1 PUSH4 0x6D4CE63C GT PUSH2 0x5B JUMPI DUP1 PUSH4 0x6D4CE63C EQ PUSH2 0xDB JUMPI DUP1 PUSH4 0x6DF20390 EQ PUSH2 0xF9 JUMPI DUP1 PUSH4 0x7E59301E EQ PUSH2 0x103 JUMPI DUP1 PUSH4 0xEFDE6DCF EQ PUSH2 0x10D JUMPI PUSH2 0x88 JUMP JUMPDEST DUP1 PUSH4 0x24B8BA5F EQ PUSH2 0x8D JUMPI DUP1 PUSH4 0x33CF58F9 EQ PUSH2 0xA9 JUMPI DUP1 PUSH4 0x45F09CE9 EQ PUSH2 0xB3 JUMPI DUP1 PUSH4 0x63B95884 EQ PUSH2 0xD1 JUMPI JUMPDEST PUSH1 0x0 DUP1 REVERT JUMPDEST PUSH2 0xA7 PUSH1 0x4 DUP1 CALLDATASIZE SUB DUP2 ADD SWAP1 PUSH2 0xA2 SWAP2 SWAP1 PUSH2 0x25B JUMP JUMPDEST PUSH2 0x117 JUMP JUMPDEST STOP JUMPDEST PUSH2 0xB1 PUSH2 0x143 JUMP JUMPDEST STOP JUMPDEST PUSH2 0xBB PUSH2 0x16F JUMP JUMPDEST PUSH1 0x40 MLOAD PUSH2 0xC8 SWAP2 SWAP1 PUSH2 0x297 JUMP JUMPDEST PUSH1 0x40 MLOAD DUP1 SWAP2 SUB SWAP1 RETURN JUMPDEST PUSH2 0xD9 PUSH2 0x180 JUMP JUMPDEST STOP JUMPDEST PUSH2 0xE3 PUSH2 0x1AC JUMP JUMPDEST PUSH1 0x40 MLOAD PUSH2 0xF0 SWAP2 SWAP1 PUSH2 0x297 JUMP JUMPDEST PUSH1 0x40 MLOAD DUP1 SWAP2 SUB SWAP1 RETURN JUMPDEST PUSH2 0x101 PUSH2 0x1C2 JUMP JUMPDEST STOP JUMPDEST PUSH2 0x10B PUSH2 0x1EE JUMP JUMPDEST STOP JUMPDEST PUSH2 0x115 PUSH2 0x21A JUMP JUMPDEST STOP JUMPDEST DUP1 PUSH1 0x0 DUP1 PUSH2 0x100 EXP DUP2 SLOAD DUP2 PUSH1 0xFF MUL NOT AND SWAP1 DUP4 PUSH1 0x5 DUP2 GT ISZERO PUSH2 0x13B JUMPI PUSH2 0x13A PUSH2 0x2D7 JUMP JUMPDEST JUMPDEST MUL OR SWAP1 SSTORE POP POP JUMP JUMPDEST PUSH1 0x3 PUSH1 0x0 DUP1 PUSH2 0x100 EXP DUP2 SLOAD DUP2 PUSH1 0xFF MUL NOT AND SWAP1 DUP4 PUSH1 0x5 DUP2 GT ISZERO PUSH2 0x168 JUMPI PUSH2 0x167 PUSH2 0x2D7 JUMP JUMPDEST JUMPDEST MUL OR SWAP1 SSTORE POP JUMP JUMPDEST PUSH1 0x0 DUP1 SLOAD SWAP1 PUSH2 0x100 EXP SWAP1 DIV PUSH1 0xFF AND DUP2 JUMP JUMPDEST PUSH1 0x5 PUSH1 0x0 DUP1 PUSH2 0x100 EXP DUP2 SLOAD DUP2 PUSH1 0xFF MUL NOT AND SWAP1 DUP4 PUSH1 0x5 DUP2 GT ISZERO PUSH2 0x1A5 JUMPI PUSH2 0x1A4 PUSH2 0x2D7 JUMP JUMPDEST JUMPDEST MUL OR SWAP1 SSTORE POP JUMP JUMPDEST PUSH1 0x0 DUP1 PUSH1 0x0 SWAP1 SLOAD SWAP1 PUSH2 0x100 EXP SWAP1 DIV PUSH1 0xFF AND SWAP1 POP SWAP1 JUMP JUMPDEST PUSH1 0x1 PUSH1 0x0 DUP1 PUSH2 0x100 EXP DUP2 SLOAD DUP2 PUSH1 0xFF MUL NOT AND SWAP1 DUP4 PUSH1 0x5 DUP2 GT ISZERO PUSH2 0x1E7 JUMPI PUSH2 0x1E6 PUSH2 0x2D7 JUMP JUMPDEST JUMPDEST MUL OR SWAP1 SSTORE POP JUMP JUMPDEST PUSH1 0x2 PUSH1 0x0 DUP1 PUSH2 0x100 EXP DUP2 SLOAD DUP2 PUSH1 0xFF MUL NOT AND SWAP1 DUP4 PUSH1 0x5 DUP2 GT ISZERO PUSH2 0x213 JUMPI PUSH2 0x212 PUSH2 0x2D7 JUMP JUMPDEST JUMPDEST MUL OR SWAP1 SSTORE POP JUMP JUMPDEST PUSH1 0x4 PUSH1 0x0 DUP1 PUSH2 0x100 EXP DUP2 SLOAD DUP2 PUSH1 0xFF MUL NOT AND SWAP1 DUP4 PUSH1 0x5 DUP2 GT ISZERO PUSH2 0x23F JUMPI PUSH2 0x23E PUSH2 0x2D7 JUMP JUMPDEST JUMPDEST MUL OR SWAP1 SSTORE POP JUMP JUMPDEST PUSH1 0x0 DUP2 CALLDATALOAD SWAP1 POP PUSH2 0x255 DUP2 PUSH2 0x31F JUMP JUMPDEST SWAP3 SWAP2 POP POP JUMP JUMPDEST PUSH1 0x0 PUSH1 0x20 DUP3 DUP5 SUB SLT ISZERO PUSH2 0x271 JUMPI PUSH2 0x270 PUSH2 0x306 JUMP JUMPDEST JUMPDEST PUSH1 0x0 PUSH2 0x27F DUP5 DUP3 DUP6 ADD PUSH2 0x246 JUMP JUMPDEST SWAP2 POP POP SWAP3 SWAP2 POP POP JUMP JUMPDEST PUSH2 0x291 DUP2 PUSH2 0x2C5 JUMP JUMPDEST DUP3 MSTORE POP POP JUMP JUMPDEST PUSH1 0x0 PUSH1 0x20 DUP3 ADD SWAP1 POP PUSH2 0x2AC PUSH1 0x0 DUP4 ADD DUP5 PUSH2 0x288 JUMP JUMPDEST SWAP3 SWAP2 POP POP JUMP JUMPDEST PUSH1 0x0 DUP2 SWAP1 POP PUSH2 0x2C0 DUP3 PUSH2 0x30B JUMP JUMPDEST SWAP2 SWAP1 POP JUMP JUMPDEST PUSH1 0x0 PUSH2 0x2D0 DUP3 PUSH2 0x2B2 JUMP JUMPDEST SWAP1 POP SWAP2 SWAP1 POP JUMP JUMPDEST PUSH32 0x4E487B7100000000000000000000000000000000000000000000000000000000 PUSH1 0x0 MSTORE PUSH1 0x21 PUSH1 0x4 MSTORE PUSH1 0x24 PUSH1 0x0 REVERT JUMPDEST PUSH1 0x0 DUP1 REVERT JUMPDEST PUSH1 0x6 DUP2 LT PUSH2 0x31C JUMPI PUSH2 0x31B PUSH2 0x2D7 JUMP JUMPDEST JUMPDEST POP JUMP JUMPDEST PUSH1 0x6 DUP2 LT PUSH2 0x32C JUMPI PUSH1 0x0 DUP1 REVERT JUMPDEST POP JUMP INVALID LOG2 PUSH5 0x6970667358 0x22 SLT KECCAK256 0xE5 0xE NUMBER NUMBER SHR 0x4D 0xE8 EQ 0xE3 0xE1 0xB9 CODECOPY DUP2 PUSH5 0x8589EAC29 PUSH31 0xE850886C9806F0C909EE7B6A64736F6C634300080700330000000000000000 "
				},
				"gasEstimates": {
					"creation": {
						"codeDepositCost": "173800",
						"executionCost": "220",
						"totalCost": "174020"
					},
					"external": {
						"Accepted()": "24454",
						"Cancelled()": "24498",
						"Pending()": "24453",
						"Rejected()": "24497",
						"Shipped()": "24475",
						"Status()": "2602",
						"get()": "2568",
						"set(uint8)": "24651"
					}
				},
				"methodIdentifiers": {
					"Accepted()": "33cf58f9",
					"Cancelled()": "63b95884",
					"Pending()": "6df20390",
					"Rejected()": "efde6dcf",
					"Shipped()": "7e59301e",
					"Status()": "45f09ce9",
					"get()": "6d4ce63c",
					"set(uint8)": "24b8ba5f"
				}
			},
			"storageLayout": {
				"storage": [
					{
						"astId": 11,
						"contract": "13thOct/classwork4.sol:dev4tech",
						"label": "Status",
						"offset": 0,
						"slot": "0",
						"type": "t_enum(Shipping)8"
					}
				],
				"types": {
					"t_enum(Shipping)8": {
						"encoding": "inplace",
						"label": "enum dev4tech.Shipping",
						"numberOfBytes": "1"
					}
				}
			},
			"userdoc": {
				"kind": "user",
				"methods": {},
				"version": 1
			}
		}
	}
}