{
	"6thOct/classwork2.sol": {
		"techd": {
			"abi": [
				{
					"inputs": [],
					"name": "count",
					"outputs": [
						{
							"internalType": "uint256",
							"name": "",
							"type": "uint256"
						}
					],
					"stateMutability": "view",
					"type": "function"
				},
				{
					"inputs": [],
					"name": "decrease",
					"outputs": [],
					"stateMutability": "nonpayable",
					"type": "function"
				},
				{
					"inputs": [],
					"name": "increase",
					"outputs": [],
					"stateMutability": "nonpayable",
					"type": "function"
				},
				{
					"inputs": [],
					"name": "paused",
					"outputs": [
						{
							"internalType": "bool",
							"name": "",
							"type": "bool"
						}
					],
					"stateMutability": "view",
					"type": "function"
				},
				{
					"inputs": [
						{
							"internalType": "bool",
							"name": "_x",
							"type": "bool"
						}
					],
					"name": "setPause",
					"outputs": [],
					"stateMutability": "nonpayable",
					"type": "function"
				}
			],
			"devdoc": {
				"kind": "dev",
				"methods": {},
				"version": 1
			},
			"evm": {
				"assembly": "    /* \"6thOct/classwork2.sol\":60:438  contract techd{\r... */\n  mstore(0x40, 0x80)\n  callvalue\n  dup1\n  iszero\n  tag_1\n  jumpi\n  0x00\n  dup1\n  revert\ntag_1:\n  pop\n  dataSize(sub_0)\n  dup1\n  dataOffset(sub_0)\n  0x00\n  codecopy\n  0x00\n  return\nstop\n\nsub_0: assembly {\n        /* \"6thOct/classwork2.sol\":60:438  contract techd{\r... */\n      mstore(0x40, 0x80)\n      callvalue\n      dup1\n      iszero\n      tag_1\n      jumpi\n      0x00\n      dup1\n      revert\n    tag_1:\n      pop\n      jumpi(tag_2, lt(calldatasize, 0x04))\n      shr(0xe0, calldataload(0x00))\n      dup1\n      0x06661abd\n      eq\n      tag_3\n      jumpi\n      dup1\n      0x5c975abb\n      eq\n      tag_4\n      jumpi\n      dup1\n      0xbedb86fb\n      eq\n      tag_5\n      jumpi\n      dup1\n      0xd732d955\n      eq\n      tag_6\n      jumpi\n      dup1\n      0xe8927fbc\n      eq\n      tag_7\n      jumpi\n    tag_2:\n      0x00\n      dup1\n      revert\n        /* \"6thOct/classwork2.sol\":108:125  uint public count */\n    tag_3:\n      tag_8\n      tag_9\n      jump\t// in\n    tag_8:\n      mload(0x40)\n      tag_10\n      swap2\n      swap1\n      tag_11\n      jump\t// in\n    tag_10:\n      mload(0x40)\n      dup1\n      swap2\n      sub\n      swap1\n      return\n        /* \"6thOct/classwork2.sol\":83:101  bool public paused */\n    tag_4:\n      tag_12\n      tag_13\n      jump\t// in\n    tag_12:\n      mload(0x40)\n      tag_14\n      swap2\n      swap1\n      tag_15\n      jump\t// in\n    tag_14:\n      mload(0x40)\n      dup1\n      swap2\n      sub\n      swap1\n      return\n        /* \"6thOct/classwork2.sol\":213:277  function setPause(bool _x) public {\r... */\n    tag_5:\n      tag_16\n      0x04\n      dup1\n      calldatasize\n      sub\n      dup2\n      add\n      swap1\n      tag_17\n      swap2\n      swap1\n      tag_18\n      jump\t// in\n    tag_17:\n      tag_19\n      jump\t// in\n    tag_16:\n      stop\n        /* \"6thOct/classwork2.sol\":364:435  function decrease() public whennotpaused(){\r... */\n    tag_6:\n      tag_20\n      tag_21\n      jump\t// in\n    tag_20:\n      stop\n        /* \"6thOct/classwork2.sol\":285:356  function increase() public whennotpaused(){\r... */\n    tag_7:\n      tag_22\n      tag_23\n      jump\t// in\n    tag_22:\n      stop\n        /* \"6thOct/classwork2.sol\":108:125  uint public count */\n    tag_9:\n      sload(0x01)\n      dup2\n      jump\t// out\n        /* \"6thOct/classwork2.sol\":83:101  bool public paused */\n    tag_13:\n      0x00\n      dup1\n      sload\n      swap1\n      0x0100\n      exp\n      swap1\n      div\n      0xff\n      and\n      dup2\n      jump\t// out\n        /* \"6thOct/classwork2.sol\":213:277  function setPause(bool _x) public {\r... */\n    tag_19:\n        /* \"6thOct/classwork2.sol\":267:269  _x */\n      dup1\n        /* \"6thOct/classwork2.sol\":258:264  paused */\n      0x00\n      dup1\n        /* \"6thOct/classwork2.sol\":258:269  paused = _x */\n      0x0100\n      exp\n      dup2\n      sload\n      dup2\n      0xff\n      mul\n      not\n      and\n      swap1\n      dup4\n      iszero\n      iszero\n      mul\n      or\n      swap1\n      sstore\n      pop\n        /* \"6thOct/classwork2.sol\":213:277  function setPause(bool _x) public {\r... */\n      pop\n      jump\t// out\n        /* \"6thOct/classwork2.sol\":364:435  function decrease() public whennotpaused(){\r... */\n    tag_21:\n        /* \"6thOct/classwork2.sol\":178:184  paused */\n      0x00\n      dup1\n      sload\n      swap1\n      0x0100\n      exp\n      swap1\n      div\n      0xff\n      and\n        /* \"6thOct/classwork2.sol\":177:184  !paused */\n      iszero\n        /* \"6thOct/classwork2.sol\":169:185  require(!paused) */\n      tag_26\n      jumpi\n      0x00\n      dup1\n      revert\n    tag_26:\n        /* \"6thOct/classwork2.sol\":426:427  1 */\n      0x01\n        /* \"6thOct/classwork2.sol\":417:422  count */\n      dup1\n      0x00\n        /* \"6thOct/classwork2.sol\":417:427  count -= 1 */\n      dup3\n      dup3\n      sload\n      tag_28\n      swap2\n      swap1\n      tag_29\n      jump\t// in\n    tag_28:\n      swap3\n      pop\n      pop\n      dup2\n      swap1\n      sstore\n      pop\n        /* \"6thOct/classwork2.sol\":364:435  function decrease() public whennotpaused(){\r... */\n      jump\t// out\n        /* \"6thOct/classwork2.sol\":285:356  function increase() public whennotpaused(){\r... */\n    tag_23:\n        /* \"6thOct/classwork2.sol\":178:184  paused */\n      0x00\n      dup1\n      sload\n      swap1\n      0x0100\n      exp\n      swap1\n      div\n      0xff\n      and\n        /* \"6thOct/classwork2.sol\":177:184  !paused */\n      iszero\n        /* \"6thOct/classwork2.sol\":169:185  require(!paused) */\n      tag_31\n      jumpi\n      0x00\n      dup1\n      revert\n    tag_31:\n        /* \"6thOct/classwork2.sol\":347:348  2 */\n      0x02\n        /* \"6thOct/classwork2.sol\":338:343  count */\n      0x01\n      0x00\n        /* \"6thOct/classwork2.sol\":338:348  count += 2 */\n      dup3\n      dup3\n      sload\n      tag_33\n      swap2\n      swap1\n      tag_34\n      jump\t// in\n    tag_33:\n      swap3\n      pop\n      pop\n      dup2\n      swap1\n      sstore\n      pop\n        /* \"6thOct/classwork2.sol\":285:356  function increase() public whennotpaused(){\r... */\n      jump\t// out\n        /* \"#utility.yul\":7:140   */\n    tag_36:\n        /* \"#utility.yul\":50:55   */\n      0x00\n        /* \"#utility.yul\":88:94   */\n      dup2\n        /* \"#utility.yul\":75:95   */\n      calldataload\n        /* \"#utility.yul\":66:95   */\n      swap1\n      pop\n        /* \"#utility.yul\":104:134   */\n      tag_38\n        /* \"#utility.yul\":128:133   */\n      dup2\n        /* \"#utility.yul\":104:134   */\n      tag_39\n      jump\t// in\n    tag_38:\n        /* \"#utility.yul\":7:140   */\n      swap3\n      swap2\n      pop\n      pop\n      jump\t// out\n        /* \"#utility.yul\":146:469   */\n    tag_18:\n        /* \"#utility.yul\":202:208   */\n      0x00\n        /* \"#utility.yul\":251:253   */\n      0x20\n        /* \"#utility.yul\":239:248   */\n      dup3\n        /* \"#utility.yul\":230:237   */\n      dup5\n        /* \"#utility.yul\":226:249   */\n      sub\n        /* \"#utility.yul\":222:254   */\n      slt\n        /* \"#utility.yul\":219:338   */\n      iszero\n      tag_41\n      jumpi\n        /* \"#utility.yul\":257:336   */\n      tag_42\n      tag_43\n      jump\t// in\n    tag_42:\n        /* \"#utility.yul\":219:338   */\n    tag_41:\n        /* \"#utility.yul\":377:378   */\n      0x00\n        /* \"#utility.yul\":402:452   */\n      tag_44\n        /* \"#utility.yul\":444:451   */\n      dup5\n        /* \"#utility.yul\":435:441   */\n      dup3\n        /* \"#utility.yul\":424:433   */\n      dup6\n        /* \"#utility.yul\":420:442   */\n      add\n        /* \"#utility.yul\":402:452   */\n      tag_36\n      jump\t// in\n    tag_44:\n        /* \"#utility.yul\":392:452   */\n      swap2\n      pop\n        /* \"#utility.yul\":348:462   */\n      pop\n        /* \"#utility.yul\":146:469   */\n      swap3\n      swap2\n      pop\n      pop\n      jump\t// out\n        /* \"#utility.yul\":475:584   */\n    tag_45:\n        /* \"#utility.yul\":556:577   */\n      tag_47\n        /* \"#utility.yul\":571:576   */\n      dup2\n        /* \"#utility.yul\":556:577   */\n      tag_48\n      jump\t// in\n    tag_47:\n        /* \"#utility.yul\":551:554   */\n      dup3\n        /* \"#utility.yul\":544:578   */\n      mstore\n        /* \"#utility.yul\":475:584   */\n      pop\n      pop\n      jump\t// out\n        /* \"#utility.yul\":590:708   */\n    tag_49:\n        /* \"#utility.yul\":677:701   */\n      tag_51\n        /* \"#utility.yul\":695:700   */\n      dup2\n        /* \"#utility.yul\":677:701   */\n      tag_52\n      jump\t// in\n    tag_51:\n        /* \"#utility.yul\":672:675   */\n      dup3\n        /* \"#utility.yul\":665:702   */\n      mstore\n        /* \"#utility.yul\":590:708   */\n      pop\n      pop\n      jump\t// out\n        /* \"#utility.yul\":714:924   */\n    tag_15:\n        /* \"#utility.yul\":801:805   */\n      0x00\n        /* \"#utility.yul\":839:841   */\n      0x20\n        /* \"#utility.yul\":828:837   */\n      dup3\n        /* \"#utility.yul\":824:842   */\n      add\n        /* \"#utility.yul\":816:842   */\n      swap1\n      pop\n        /* \"#utility.yul\":852:917   */\n      tag_54\n        /* \"#utility.yul\":914:915   */\n      0x00\n        /* \"#utility.yul\":903:912   */\n      dup4\n        /* \"#utility.yul\":899:916   */\n      add\n        /* \"#utility.yul\":890:896   */\n      dup5\n        /* \"#utility.yul\":852:917   */\n      tag_45\n      jump\t// in\n    tag_54:\n        /* \"#utility.yul\":714:924   */\n      swap3\n      swap2\n      pop\n      pop\n      jump\t// out\n        /* \"#utility.yul\":930:1152   */\n    tag_11:\n        /* \"#utility.yul\":1023:1027   */\n      0x00\n        /* \"#utility.yul\":1061:1063   */\n      0x20\n        /* \"#utility.yul\":1050:1059   */\n      dup3\n        /* \"#utility.yul\":1046:1064   */\n      add\n        /* \"#utility.yul\":1038:1064   */\n      swap1\n      pop\n        /* \"#utility.yul\":1074:1145   */\n      tag_56\n        /* \"#utility.yul\":1142:1143   */\n      0x00\n        /* \"#utility.yul\":1131:1140   */\n      dup4\n        /* \"#utility.yul\":1127:1144   */\n      add\n        /* \"#utility.yul\":1118:1124   */\n      dup5\n        /* \"#utility.yul\":1074:1145   */\n      tag_49\n      jump\t// in\n    tag_56:\n        /* \"#utility.yul\":930:1152   */\n      swap3\n      swap2\n      pop\n      pop\n      jump\t// out\n        /* \"#utility.yul\":1239:1544   */\n    tag_34:\n        /* \"#utility.yul\":1279:1282   */\n      0x00\n        /* \"#utility.yul\":1298:1318   */\n      tag_60\n        /* \"#utility.yul\":1316:1317   */\n      dup3\n        /* \"#utility.yul\":1298:1318   */\n      tag_52\n      jump\t// in\n    tag_60:\n        /* \"#utility.yul\":1293:1318   */\n      swap2\n      pop\n        /* \"#utility.yul\":1332:1352   */\n      tag_61\n        /* \"#utility.yul\":1350:1351   */\n      dup4\n        /* \"#utility.yul\":1332:1352   */\n      tag_52\n      jump\t// in\n    tag_61:\n        /* \"#utility.yul\":1327:1352   */\n      swap3\n      pop\n        /* \"#utility.yul\":1486:1487   */\n      dup3\n        /* \"#utility.yul\":1418:1484   */\n      0xffffffffffffffffffffffffffffffffffffffffffffffffffffffffffffffff\n        /* \"#utility.yul\":1414:1488   */\n      sub\n        /* \"#utility.yul\":1411:1412   */\n      dup3\n        /* \"#utility.yul\":1408:1489   */\n      gt\n        /* \"#utility.yul\":1405:1512   */\n      iszero\n      tag_62\n      jumpi\n        /* \"#utility.yul\":1492:1510   */\n      tag_63\n      tag_64\n      jump\t// in\n    tag_63:\n        /* \"#utility.yul\":1405:1512   */\n    tag_62:\n        /* \"#utility.yul\":1536:1537   */\n      dup3\n        /* \"#utility.yul\":1533:1534   */\n      dup3\n        /* \"#utility.yul\":1529:1538   */\n      add\n        /* \"#utility.yul\":1522:1538   */\n      swap1\n      pop\n        /* \"#utility.yul\":1239:1544   */\n      swap3\n      swap2\n      pop\n      pop\n      jump\t// out\n        /* \"#utility.yul\":1550:1741   */\n    tag_29:\n        /* \"#utility.yul\":1590:1594   */\n      0x00\n        /* \"#utility.yul\":1610:1630   */\n      tag_66\n        /* \"#utility.yul\":1628:1629   */\n      dup3\n        /* \"#utility.yul\":1610:1630   */\n      tag_52\n      jump\t// in\n    tag_66:\n        /* \"#utility.yul\":1605:1630   */\n      swap2\n      pop\n        /* \"#utility.yul\":1644:1664   */\n      tag_67\n        /* \"#utility.yul\":1662:1663   */\n      dup4\n        /* \"#utility.yul\":1644:1664   */\n      tag_52\n      jump\t// in\n    tag_67:\n        /* \"#utility.yul\":1639:1664   */\n      swap3\n      pop\n        /* \"#utility.yul\":1683:1684   */\n      dup3\n        /* \"#utility.yul\":1680:1681   */\n      dup3\n        /* \"#utility.yul\":1677:1685   */\n      lt\n        /* \"#utility.yul\":1674:1708   */\n      iszero\n      tag_68\n      jumpi\n        /* \"#utility.yul\":1688:1706   */\n      tag_69\n      tag_64\n      jump\t// in\n    tag_69:\n        /* \"#utility.yul\":1674:1708   */\n    tag_68:\n        /* \"#utility.yul\":1733:1734   */\n      dup3\n        /* \"#utility.yul\":1730:1731   */\n      dup3\n        /* \"#utility.yul\":1726:1735   */\n      sub\n        /* \"#utility.yul\":1718:1735   */\n      swap1\n      pop\n        /* \"#utility.yul\":1550:1741   */\n      swap3\n      swap2\n      pop\n      pop\n      jump\t// out\n        /* \"#utility.yul\":1747:1837   */\n    tag_48:\n        /* \"#utility.yul\":1781:1788   */\n      0x00\n        /* \"#utility.yul\":1824:1829   */\n      dup2\n        /* \"#utility.yul\":1817:1830   */\n      iszero\n        /* \"#utility.yul\":1810:1831   */\n      iszero\n        /* \"#utility.yul\":1799:1831   */\n      swap1\n      pop\n        /* \"#utility.yul\":1747:1837   */\n      swap2\n      swap1\n      pop\n      jump\t// out\n        /* \"#utility.yul\":1843:1920   */\n    tag_52:\n        /* \"#utility.yul\":1880:1887   */\n      0x00\n        /* \"#utility.yul\":1909:1914   */\n      dup2\n        /* \"#utility.yul\":1898:1914   */\n      swap1\n      pop\n        /* \"#utility.yul\":1843:1920   */\n      swap2\n      swap1\n      pop\n      jump\t// out\n        /* \"#utility.yul\":1926:2106   */\n    tag_64:\n        /* \"#utility.yul\":1974:2051   */\n      0x4e487b7100000000000000000000000000000000000000000000000000000000\n        /* \"#utility.yul\":1971:1972   */\n      0x00\n        /* \"#utility.yul\":1964:2052   */\n      mstore\n        /* \"#utility.yul\":2071:2075   */\n      0x11\n        /* \"#utility.yul\":2068:2069   */\n      0x04\n        /* \"#utility.yul\":2061:2076   */\n      mstore\n        /* \"#utility.yul\":2095:2099   */\n      0x24\n        /* \"#utility.yul\":2092:2093   */\n      0x00\n        /* \"#utility.yul\":2085:2100   */\n      revert\n        /* \"#utility.yul\":2235:2352   */\n    tag_43:\n        /* \"#utility.yul\":2344:2345   */\n      0x00\n        /* \"#utility.yul\":2341:2342   */\n      dup1\n        /* \"#utility.yul\":2334:2346   */\n      revert\n        /* \"#utility.yul\":2358:2474   */\n    tag_39:\n        /* \"#utility.yul\":2428:2449   */\n      tag_77\n        /* \"#utility.yul\":2443:2448   */\n      dup2\n        /* \"#utility.yul\":2428:2449   */\n      tag_48\n      jump\t// in\n    tag_77:\n        /* \"#utility.yul\":2421:2426   */\n      dup2\n        /* \"#utility.yul\":2418:2450   */\n      eq\n        /* \"#utility.yul\":2408:2468   */\n      tag_78\n      jumpi\n        /* \"#utility.yul\":2464:2465   */\n      0x00\n        /* \"#utility.yul\":2461:2462   */\n      dup1\n        /* \"#utility.yul\":2454:2466   */\n      revert\n        /* \"#utility.yul\":2408:2468   */\n    tag_78:\n        /* \"#utility.yul\":2358:2474   */\n      pop\n      jump\t// out\n\n    auxdata: 0xa26469706673582212209e1944bcab28cc39648fd1165e236bfee5c088d6629aeea6a2dfd9dfcbca3c1964736f6c63430008070033\n}\n",
				"bytecode": {
					"linkReferences": {},
					"object": "608060405234801561001057600080fd5b50610319806100206000396000f3fe608060405234801561001057600080fd5b50600436106100575760003560e01c806306661abd1461005c5780635c975abb1461007a578063bedb86fb14610098578063d732d955146100b4578063e8927fbc146100be575b600080fd5b6100646100c8565b60405161007191906101dd565b60405180910390f35b6100826100ce565b60405161008f91906101c2565b60405180910390f35b6100b260048036038101906100ad9190610177565b6100df565b005b6100bc6100fb565b005b6100c661012e565b005b60015481565b60008054906101000a900460ff1681565b806000806101000a81548160ff02191690831515021790555050565b60008054906101000a900460ff161561011357600080fd5b6001806000828254610125919061024e565b92505081905550565b60008054906101000a900460ff161561014657600080fd5b60026001600082825461015991906101f8565b92505081905550565b600081359050610171816102cc565b92915050565b60006020828403121561018d5761018c6102c7565b5b600061019b84828501610162565b91505092915050565b6101ad81610282565b82525050565b6101bc8161028e565b82525050565b60006020820190506101d760008301846101a4565b92915050565b60006020820190506101f260008301846101b3565b92915050565b60006102038261028e565b915061020e8361028e565b9250827fffffffffffffffffffffffffffffffffffffffffffffffffffffffffffffffff0382111561024357610242610298565b5b828201905092915050565b60006102598261028e565b91506102648361028e565b92508282101561027757610276610298565b5b828203905092915050565b60008115159050919050565b6000819050919050565b7f4e487b7100000000000000000000000000000000000000000000000000000000600052601160045260246000fd5b600080fd5b6102d581610282565b81146102e057600080fd5b5056fea26469706673582212209e1944bcab28cc39648fd1165e236bfee5c088d6629aeea6a2dfd9dfcbca3c1964736f6c63430008070033",
					"opcodes": "PUSH1 0x80 PUSH1 0x40 MSTORE CALLVALUE DUP1 ISZERO PUSH2 0x10 JUMPI PUSH1 0x0 DUP1 REVERT JUMPDEST POP PUSH2 0x319 DUP1 PUSH2 0x20 PUSH1 0x0 CODECOPY PUSH1 0x0 RETURN INVALID PUSH1 0x80 PUSH1 0x40 MSTORE CALLVALUE DUP1 ISZERO PUSH2 0x10 JUMPI PUSH1 0x0 DUP1 REVERT JUMPDEST POP PUSH1 0x4 CALLDATASIZE LT PUSH2 0x57 JUMPI PUSH1 0x0 CALLDATALOAD PUSH1 0xE0 SHR DUP1 PUSH4 0x6661ABD EQ PUSH2 0x5C JUMPI DUP1 PUSH4 0x5C975ABB EQ PUSH2 0x7A JUMPI DUP1 PUSH4 0xBEDB86FB EQ PUSH2 0x98 JUMPI DUP1 PUSH4 0xD732D955 EQ PUSH2 0xB4 JUMPI DUP1 PUSH4 0xE8927FBC EQ PUSH2 0xBE JUMPI JUMPDEST PUSH1 0x0 DUP1 REVERT JUMPDEST PUSH2 0x64 PUSH2 0xC8 JUMP JUMPDEST PUSH1 0x40 MLOAD PUSH2 0x71 SWAP2 SWAP1 PUSH2 0x1DD JUMP JUMPDEST PUSH1 0x40 MLOAD DUP1 SWAP2 SUB SWAP1 RETURN JUMPDEST PUSH2 0x82 PUSH2 0xCE JUMP JUMPDEST PUSH1 0x40 MLOAD PUSH2 0x8F SWAP2 SWAP1 PUSH2 0x1C2 JUMP JUMPDEST PUSH1 0x40 MLOAD DUP1 SWAP2 SUB SWAP1 RETURN JUMPDEST PUSH2 0xB2 PUSH1 0x4 DUP1 CALLDATASIZE SUB DUP2 ADD SWAP1 PUSH2 0xAD SWAP2 SWAP1 PUSH2 0x177 JUMP JUMPDEST PUSH2 0xDF JUMP JUMPDEST STOP JUMPDEST PUSH2 0xBC PUSH2 0xFB JUMP JUMPDEST STOP JUMPDEST PUSH2 0xC6 PUSH2 0x12E JUMP JUMPDEST STOP JUMPDEST PUSH1 0x1 SLOAD DUP2 JUMP JUMPDEST PUSH1 0x0 DUP1 SLOAD SWAP1 PUSH2 0x100 EXP SWAP1 DIV PUSH1 0xFF AND DUP2 JUMP JUMPDEST DUP1 PUSH1 0x0 DUP1 PUSH2 0x100 EXP DUP2 SLOAD DUP2 PUSH1 0xFF MUL NOT AND SWAP1 DUP4 ISZERO ISZERO MUL OR SWAP1 SSTORE POP POP JUMP JUMPDEST PUSH1 0x0 DUP1 SLOAD SWAP1 PUSH2 0x100 EXP SWAP1 DIV PUSH1 0xFF AND ISZERO PUSH2 0x113 JUMPI PUSH1 0x0 DUP1 REVERT JUMPDEST PUSH1 0x1 DUP1 PUSH1 0x0 DUP3 DUP3 SLOAD PUSH2 0x125 SWAP2 SWAP1 PUSH2 0x24E JUMP JUMPDEST SWAP3 POP POP DUP2 SWAP1 SSTORE POP JUMP JUMPDEST PUSH1 0x0 DUP1 SLOAD SWAP1 PUSH2 0x100 EXP SWAP1 DIV PUSH1 0xFF AND ISZERO PUSH2 0x146 JUMPI PUSH1 0x0 DUP1 REVERT JUMPDEST PUSH1 0x2 PUSH1 0x1 PUSH1 0x0 DUP3 DUP3 SLOAD PUSH2 0x159 SWAP2 SWAP1 PUSH2 0x1F8 JUMP JUMPDEST SWAP3 POP POP DUP2 SWAP1 SSTORE POP JUMP JUMPDEST PUSH1 0x0 DUP2 CALLDATALOAD SWAP1 POP PUSH2 0x171 DUP2 PUSH2 0x2CC JUMP JUMPDEST SWAP3 SWAP2 POP POP JUMP JUMPDEST PUSH1 0x0 PUSH1 0x20 DUP3 DUP5 SUB SLT ISZERO PUSH2 0x18D JUMPI PUSH2 0x18C PUSH2 0x2C7 JUMP JUMPDEST JUMPDEST PUSH1 0x0 PUSH2 0x19B DUP5 DUP3 DUP6 ADD PUSH2 0x162 JUMP JUMPDEST SWAP2 POP POP SWAP3 SWAP2 POP POP JUMP JUMPDEST PUSH2 0x1AD DUP2 PUSH2 0x282 JUMP JUMPDEST DUP3 MSTORE POP POP JUMP JUMPDEST PUSH2 0x1BC DUP2 PUSH2 0x28E JUMP JUMPDEST DUP3 MSTORE POP POP JUMP JUMPDEST PUSH1 0x0 PUSH1 0x20 DUP3 ADD SWAP1 POP PUSH2 0x1D7 PUSH1 0x0 DUP4 ADD DUP5 PUSH2 0x1A4 JUMP JUMPDEST SWAP3 SWAP2 POP POP JUMP JUMPDEST PUSH1 0x0 PUSH1 0x20 DUP3 ADD SWAP1 POP PUSH2 0x1F2 PUSH1 0x0 DUP4 ADD DUP5 PUSH2 0x1B3 JUMP JUMPDEST SWAP3 SWAP2 POP POP JUMP JUMPDEST PUSH1 0x0 PUSH2 0x203 DUP3 PUSH2 0x28E JUMP JUMPDEST SWAP2 POP PUSH2 0x20E DUP4 PUSH2 0x28E JUMP JUMPDEST SWAP3 POP DUP3 PUSH32 0xFFFFFFFFFFFFFFFFFFFFFFFFFFFFFFFFFFFFFFFFFFFFFFFFFFFFFFFFFFFFFFFF SUB DUP3 GT ISZERO PUSH2 0x243 JUMPI PUSH2 0x242 PUSH2 0x298 JUMP JUMPDEST JUMPDEST DUP3 DUP3 ADD SWAP1 POP SWAP3 SWAP2 POP POP JUMP JUMPDEST PUSH1 0x0 PUSH2 0x259 DUP3 PUSH2 0x28E JUMP JUMPDEST SWAP2 POP PUSH2 0x264 DUP4 PUSH2 0x28E JUMP JUMPDEST SWAP3 POP DUP3 DUP3 LT ISZERO PUSH2 0x277 JUMPI PUSH2 0x276 PUSH2 0x298 JUMP JUMPDEST JUMPDEST DUP3 DUP3 SUB SWAP1 POP SWAP3 SWAP2 POP POP JUMP JUMPDEST PUSH1 0x0 DUP2 ISZERO ISZERO SWAP1 POP SWAP2 SWAP1 POP JUMP JUMPDEST PUSH1 0x0 DUP2 SWAP1 POP SWAP2 SWAP1 POP JUMP JUMPDEST PUSH32 0x4E487B7100000000000000000000000000000000000000000000000000000000 PUSH1 0x0 MSTORE PUSH1 0x11 PUSH1 0x4 MSTORE PUSH1 0x24 PUSH1 0x0 REVERT JUMPDEST PUSH1 0x0 DUP1 REVERT JUMPDEST PUSH2 0x2D5 DUP2 PUSH2 0x282 JUMP JUMPDEST DUP2 EQ PUSH2 0x2E0 JUMPI PUSH1 0x0 DUP1 REVERT JUMPDEST POP JUMP INVALID LOG2 PUSH5 0x6970667358 0x22 SLT KECCAK256 SWAP15 NOT DIFFICULTY 0xBC 0xAB 0x28 0xCC CODECOPY PUSH5 0x8FD1165E23 PUSH12 0xFEE5C088D6629AEEA6A2DFD9 0xDF 0xCB 0xCA EXTCODECOPY NOT PUSH5 0x736F6C6343 STOP ADDMOD SMOD STOP CALLER "
				},
				"gasEstimates": {
					"creation": {
						"codeDepositCost": "158600",
						"executionCost": "202",
						"totalCost": "158802"
					},
					"external": {
						"count()": "2407",
						"decrease()": "infinite",
						"increase()": "infinite",
						"paused()": "2468",
						"setPause(bool)": "24701"
					}
				},
				"methodIdentifiers": {
					"count()": "06661abd",
					"decrease()": "d732d955",
					"increase()": "e8927fbc",
					"paused()": "5c975abb",
					"setPause(bool)": "bedb86fb"
				}
			},
			"storageLayout": {
				"storage": [
					{
						"astId": 3,
						"contract": "6thOct/classwork2.sol:techd",
						"label": "paused",
						"offset": 0,
						"slot": "0",
						"type": "t_bool"
					},
					{
						"astId": 5,
						"contract": "6thOct/classwork2.sol:techd",
						"label": "count",
						"offset": 0,
						"slot": "1",
						"type": "t_uint256"
					}
				],
				"types": {
					"t_bool": {
						"encoding": "inplace",
						"label": "bool",
						"numberOfBytes": "1"
					},
					"t_uint256": {
						"encoding": "inplace",
						"label": "uint256",
						"numberOfBytes": "32"
					}
				}
			},
			"userdoc": {
				"kind": "user",
				"methods": {},
				"version": 1
			}
		}
	}
}