{
	"6thOct/classwork2.sol": {
		"techd": {
			"abi": [
				{
					"inputs": [],
					"name": "count",
					"outputs": [
						{
							"internalType": "uint256",
							"name": "",
							"type": "uint256"
						}
					],
					"stateMutability": "view",
					"type": "function"
				},
				{
					"inputs": [],
					"name": "decrease",
					"outputs": [],
					"stateMutability": "nonpayable",
					"type": "function"
				},
				{
					"inputs": [],
					"name": "increase",
					"outputs": [],
					"stateMutability": "nonpayable",
					"type": "function"
				},
				{
					"inputs": [],
					"name": "paused",
					"outputs": [
						{
							"internalType": "bool",
							"name": "",
							"type": "bool"
						}
					],
					"stateMutability": "view",
					"type": "function"
				},
				{
					"inputs": [],
					"name": "setPause",
					"outputs": [],
					"stateMutability": "nonpayable",
					"type": "function"
				}
			],
			"devdoc": {
				"kind": "dev",
				"methods": {},
				"version": 1
			},
			"evm": {
				"assembly": "    /* \"6thOct/classwork2.sol\":60:433  contract techd{\r... */\n  mstore(0x40, 0x80)\n  callvalue\n  dup1\n  iszero\n  tag_1\n  jumpi\n  0x00\n  dup1\n  revert\ntag_1:\n  pop\n  dataSize(sub_0)\n  dup1\n  dataOffset(sub_0)\n  0x00\n  codecopy\n  0x00\n  return\nstop\n\nsub_0: assembly {\n        /* \"6thOct/classwork2.sol\":60:433  contract techd{\r... */\n      mstore(0x40, 0x80)\n      callvalue\n      dup1\n      iszero\n      tag_1\n      jumpi\n      0x00\n      dup1\n      revert\n    tag_1:\n      pop\n      jumpi(tag_2, lt(calldatasize, 0x04))\n      shr(0xe0, calldataload(0x00))\n      dup1\n      0x06661abd\n      eq\n      tag_3\n      jumpi\n      dup1\n      0x5c975abb\n      eq\n      tag_4\n      jumpi\n      dup1\n      0xd431b1ac\n      eq\n      tag_5\n      jumpi\n      dup1\n      0xd732d955\n      eq\n      tag_6\n      jumpi\n      dup1\n      0xe8927fbc\n      eq\n      tag_7\n      jumpi\n    tag_2:\n      0x00\n      dup1\n      revert\n        /* \"6thOct/classwork2.sol\":108:125  uint public count */\n    tag_3:\n      tag_8\n      tag_9\n      jump\t// in\n    tag_8:\n      mload(0x40)\n      tag_10\n      swap2\n      swap1\n      tag_11\n      jump\t// in\n    tag_10:\n      mload(0x40)\n      dup1\n      swap2\n      sub\n      swap1\n      return\n        /* \"6thOct/classwork2.sol\":83:101  bool public paused */\n    tag_4:\n      tag_12\n      tag_13\n      jump\t// in\n    tag_12:\n      mload(0x40)\n      tag_14\n      swap2\n      swap1\n      tag_15\n      jump\t// in\n    tag_14:\n      mload(0x40)\n      dup1\n      swap2\n      sub\n      swap1\n      return\n        /* \"6thOct/classwork2.sol\":213:272  function setPause() public {\r... */\n    tag_5:\n      tag_16\n      tag_17\n      jump\t// in\n    tag_16:\n      stop\n        /* \"6thOct/classwork2.sol\":359:430  function decrease() public whennotpaused(){\r... */\n    tag_6:\n      tag_18\n      tag_19\n      jump\t// in\n    tag_18:\n      stop\n        /* \"6thOct/classwork2.sol\":280:351  function increase() public whennotpaused(){\r... */\n    tag_7:\n      tag_20\n      tag_21\n      jump\t// in\n    tag_20:\n      stop\n        /* \"6thOct/classwork2.sol\":108:125  uint public count */\n    tag_9:\n      sload(0x01)\n      dup2\n      jump\t// out\n        /* \"6thOct/classwork2.sol\":83:101  bool public paused */\n    tag_13:\n      0x00\n      dup1\n      sload\n      swap1\n      0x0100\n      exp\n      swap1\n      div\n      0xff\n      and\n      dup2\n      jump\t// out\n        /* \"6thOct/classwork2.sol\":213:272  function setPause() public {\r... */\n    tag_17:\n        /* \"6thOct/classwork2.sol\":260:264  true */\n      0x01\n        /* \"6thOct/classwork2.sol\":251:257  paused */\n      0x00\n      dup1\n        /* \"6thOct/classwork2.sol\":251:264  paused = true */\n      0x0100\n      exp\n      dup2\n      sload\n      dup2\n      0xff\n      mul\n      not\n      and\n      swap1\n      dup4\n      iszero\n      iszero\n      mul\n      or\n      swap1\n      sstore\n      pop\n        /* \"6thOct/classwork2.sol\":213:272  function setPause() public {\r... */\n      jump\t// out\n        /* \"6thOct/classwork2.sol\":359:430  function decrease() public whennotpaused(){\r... */\n    tag_19:\n        /* \"6thOct/classwork2.sol\":178:184  paused */\n      0x00\n      dup1\n      sload\n      swap1\n      0x0100\n      exp\n      swap1\n      div\n      0xff\n      and\n        /* \"6thOct/classwork2.sol\":177:184  !paused */\n      iszero\n        /* \"6thOct/classwork2.sol\":169:185  require(!paused) */\n      tag_24\n      jumpi\n      0x00\n      dup1\n      revert\n    tag_24:\n        /* \"6thOct/classwork2.sol\":421:422  1 */\n      0x01\n        /* \"6thOct/classwork2.sol\":412:417  count */\n      dup1\n      0x00\n        /* \"6thOct/classwork2.sol\":412:422  count -= 1 */\n      dup3\n      dup3\n      sload\n      tag_26\n      swap2\n      swap1\n      tag_27\n      jump\t// in\n    tag_26:\n      swap3\n      pop\n      pop\n      dup2\n      swap1\n      sstore\n      pop\n        /* \"6thOct/classwork2.sol\":359:430  function decrease() public whennotpaused(){\r... */\n      jump\t// out\n        /* \"6thOct/classwork2.sol\":280:351  function increase() public whennotpaused(){\r... */\n    tag_21:\n        /* \"6thOct/classwork2.sol\":178:184  paused */\n      0x00\n      dup1\n      sload\n      swap1\n      0x0100\n      exp\n      swap1\n      div\n      0xff\n      and\n        /* \"6thOct/classwork2.sol\":177:184  !paused */\n      iszero\n        /* \"6thOct/classwork2.sol\":169:185  require(!paused) */\n      tag_29\n      jumpi\n      0x00\n      dup1\n      revert\n    tag_29:\n        /* \"6thOct/classwork2.sol\":342:343  2 */\n      0x02\n        /* \"6thOct/classwork2.sol\":333:338  count */\n      0x01\n      0x00\n        /* \"6thOct/classwork2.sol\":333:343  count += 2 */\n      dup3\n      dup3\n      sload\n      tag_31\n      swap2\n      swap1\n      tag_32\n      jump\t// in\n    tag_31:\n      swap3\n      pop\n      pop\n      dup2\n      swap1\n      sstore\n      pop\n        /* \"6thOct/classwork2.sol\":280:351  function increase() public whennotpaused(){\r... */\n      jump\t// out\n        /* \"#utility.yul\":7:116   */\n    tag_34:\n        /* \"#utility.yul\":88:109   */\n      tag_36\n        /* \"#utility.yul\":103:108   */\n      dup2\n        /* \"#utility.yul\":88:109   */\n      tag_37\n      jump\t// in\n    tag_36:\n        /* \"#utility.yul\":83:86   */\n      dup3\n        /* \"#utility.yul\":76:110   */\n      mstore\n        /* \"#utility.yul\":7:116   */\n      pop\n      pop\n      jump\t// out\n        /* \"#utility.yul\":122:240   */\n    tag_38:\n        /* \"#utility.yul\":209:233   */\n      tag_40\n        /* \"#utility.yul\":227:232   */\n      dup2\n        /* \"#utility.yul\":209:233   */\n      tag_41\n      jump\t// in\n    tag_40:\n        /* \"#utility.yul\":204:207   */\n      dup3\n        /* \"#utility.yul\":197:234   */\n      mstore\n        /* \"#utility.yul\":122:240   */\n      pop\n      pop\n      jump\t// out\n        /* \"#utility.yul\":246:456   */\n    tag_15:\n        /* \"#utility.yul\":333:337   */\n      0x00\n        /* \"#utility.yul\":371:373   */\n      0x20\n        /* \"#utility.yul\":360:369   */\n      dup3\n        /* \"#utility.yul\":356:374   */\n      add\n        /* \"#utility.yul\":348:374   */\n      swap1\n      pop\n        /* \"#utility.yul\":384:449   */\n      tag_43\n        /* \"#utility.yul\":446:447   */\n      0x00\n        /* \"#utility.yul\":435:444   */\n      dup4\n        /* \"#utility.yul\":431:448   */\n      add\n        /* \"#utility.yul\":422:428   */\n      dup5\n        /* \"#utility.yul\":384:449   */\n      tag_34\n      jump\t// in\n    tag_43:\n        /* \"#utility.yul\":246:456   */\n      swap3\n      swap2\n      pop\n      pop\n      jump\t// out\n        /* \"#utility.yul\":462:684   */\n    tag_11:\n        /* \"#utility.yul\":555:559   */\n      0x00\n        /* \"#utility.yul\":593:595   */\n      0x20\n        /* \"#utility.yul\":582:591   */\n      dup3\n        /* \"#utility.yul\":578:596   */\n      add\n        /* \"#utility.yul\":570:596   */\n      swap1\n      pop\n        /* \"#utility.yul\":606:677   */\n      tag_45\n        /* \"#utility.yul\":674:675   */\n      0x00\n        /* \"#utility.yul\":663:672   */\n      dup4\n        /* \"#utility.yul\":659:676   */\n      add\n        /* \"#utility.yul\":650:656   */\n      dup5\n        /* \"#utility.yul\":606:677   */\n      tag_38\n      jump\t// in\n    tag_45:\n        /* \"#utility.yul\":462:684   */\n      swap3\n      swap2\n      pop\n      pop\n      jump\t// out\n        /* \"#utility.yul\":690:995   */\n    tag_32:\n        /* \"#utility.yul\":730:733   */\n      0x00\n        /* \"#utility.yul\":749:769   */\n      tag_47\n        /* \"#utility.yul\":767:768   */\n      dup3\n        /* \"#utility.yul\":749:769   */\n      tag_41\n      jump\t// in\n    tag_47:\n        /* \"#utility.yul\":744:769   */\n      swap2\n      pop\n        /* \"#utility.yul\":783:803   */\n      tag_48\n        /* \"#utility.yul\":801:802   */\n      dup4\n        /* \"#utility.yul\":783:803   */\n      tag_41\n      jump\t// in\n    tag_48:\n        /* \"#utility.yul\":778:803   */\n      swap3\n      pop\n        /* \"#utility.yul\":937:938   */\n      dup3\n        /* \"#utility.yul\":869:935   */\n      0xffffffffffffffffffffffffffffffffffffffffffffffffffffffffffffffff\n        /* \"#utility.yul\":865:939   */\n      sub\n        /* \"#utility.yul\":862:863   */\n      dup3\n        /* \"#utility.yul\":859:940   */\n      gt\n        /* \"#utility.yul\":856:963   */\n      iszero\n      tag_49\n      jumpi\n        /* \"#utility.yul\":943:961   */\n      tag_50\n      tag_51\n      jump\t// in\n    tag_50:\n        /* \"#utility.yul\":856:963   */\n    tag_49:\n        /* \"#utility.yul\":987:988   */\n      dup3\n        /* \"#utility.yul\":984:985   */\n      dup3\n        /* \"#utility.yul\":980:989   */\n      add\n        /* \"#utility.yul\":973:989   */\n      swap1\n      pop\n        /* \"#utility.yul\":690:995   */\n      swap3\n      swap2\n      pop\n      pop\n      jump\t// out\n        /* \"#utility.yul\":1001:1192   */\n    tag_27:\n        /* \"#utility.yul\":1041:1045   */\n      0x00\n        /* \"#utility.yul\":1061:1081   */\n      tag_53\n        /* \"#utility.yul\":1079:1080   */\n      dup3\n        /* \"#utility.yul\":1061:1081   */\n      tag_41\n      jump\t// in\n    tag_53:\n        /* \"#utility.yul\":1056:1081   */\n      swap2\n      pop\n        /* \"#utility.yul\":1095:1115   */\n      tag_54\n        /* \"#utility.yul\":1113:1114   */\n      dup4\n        /* \"#utility.yul\":1095:1115   */\n      tag_41\n      jump\t// in\n    tag_54:\n        /* \"#utility.yul\":1090:1115   */\n      swap3\n      pop\n        /* \"#utility.yul\":1134:1135   */\n      dup3\n        /* \"#utility.yul\":1131:1132   */\n      dup3\n        /* \"#utility.yul\":1128:1136   */\n      lt\n        /* \"#utility.yul\":1125:1159   */\n      iszero\n      tag_55\n      jumpi\n        /* \"#utility.yul\":1139:1157   */\n      tag_56\n      tag_51\n      jump\t// in\n    tag_56:\n        /* \"#utility.yul\":1125:1159   */\n    tag_55:\n        /* \"#utility.yul\":1184:1185   */\n      dup3\n        /* \"#utility.yul\":1181:1182   */\n      dup3\n        /* \"#utility.yul\":1177:1186   */\n      sub\n        /* \"#utility.yul\":1169:1186   */\n      swap1\n      pop\n        /* \"#utility.yul\":1001:1192   */\n      swap3\n      swap2\n      pop\n      pop\n      jump\t// out\n        /* \"#utility.yul\":1198:1288   */\n    tag_37:\n        /* \"#utility.yul\":1232:1239   */\n      0x00\n        /* \"#utility.yul\":1275:1280   */\n      dup2\n        /* \"#utility.yul\":1268:1281   */\n      iszero\n        /* \"#utility.yul\":1261:1282   */\n      iszero\n        /* \"#utility.yul\":1250:1282   */\n      swap1\n      pop\n        /* \"#utility.yul\":1198:1288   */\n      swap2\n      swap1\n      pop\n      jump\t// out\n        /* \"#utility.yul\":1294:1371   */\n    tag_41:\n        /* \"#utility.yul\":1331:1338   */\n      0x00\n        /* \"#utility.yul\":1360:1365   */\n      dup2\n        /* \"#utility.yul\":1349:1365   */\n      swap1\n      pop\n        /* \"#utility.yul\":1294:1371   */\n      swap2\n      swap1\n      pop\n      jump\t// out\n        /* \"#utility.yul\":1377:1557   */\n    tag_51:\n        /* \"#utility.yul\":1425:1502   */\n      0x4e487b7100000000000000000000000000000000000000000000000000000000\n        /* \"#utility.yul\":1422:1423   */\n      0x00\n        /* \"#utility.yul\":1415:1503   */\n      mstore\n        /* \"#utility.yul\":1522:1526   */\n      0x11\n        /* \"#utility.yul\":1519:1520   */\n      0x04\n        /* \"#utility.yul\":1512:1527   */\n      mstore\n        /* \"#utility.yul\":1546:1550   */\n      0x24\n        /* \"#utility.yul\":1543:1544   */\n      0x00\n        /* \"#utility.yul\":1536:1551   */\n      revert\n\n    auxdata: 0xa26469706673582212208e309deeb1816659c92fef75f5e8bcaa199fba1cdedf755e127ee4dc939b7b2064736f6c63430008070033\n}\n",
				"bytecode": {
					"linkReferences": {},
					"object": "608060405234801561001057600080fd5b506102a9806100206000396000f3fe608060405234801561001057600080fd5b50600436106100575760003560e01c806306661abd1461005c5780635c975abb1461007a578063d431b1ac14610098578063d732d955146100a2578063e8927fbc146100ac575b600080fd5b6100646100b6565b6040516100719190610189565b60405180910390f35b6100826100bc565b60405161008f919061016e565b60405180910390f35b6100a06100cd565b005b6100aa6100e9565b005b6100b461011c565b005b60015481565b60008054906101000a900460ff1681565b60016000806101000a81548160ff021916908315150217905550565b60008054906101000a900460ff161561010157600080fd5b600180600082825461011391906101fa565b92505081905550565b60008054906101000a900460ff161561013457600080fd5b60026001600082825461014791906101a4565b92505081905550565b6101598161022e565b82525050565b6101688161023a565b82525050565b60006020820190506101836000830184610150565b92915050565b600060208201905061019e600083018461015f565b92915050565b60006101af8261023a565b91506101ba8361023a565b9250827fffffffffffffffffffffffffffffffffffffffffffffffffffffffffffffffff038211156101ef576101ee610244565b5b828201905092915050565b60006102058261023a565b91506102108361023a565b92508282101561022357610222610244565b5b828203905092915050565b60008115159050919050565b6000819050919050565b7f4e487b7100000000000000000000000000000000000000000000000000000000600052601160045260246000fdfea26469706673582212208e309deeb1816659c92fef75f5e8bcaa199fba1cdedf755e127ee4dc939b7b2064736f6c63430008070033",
					"opcodes": "PUSH1 0x80 PUSH1 0x40 MSTORE CALLVALUE DUP1 ISZERO PUSH2 0x10 JUMPI PUSH1 0x0 DUP1 REVERT JUMPDEST POP PUSH2 0x2A9 DUP1 PUSH2 0x20 PUSH1 0x0 CODECOPY PUSH1 0x0 RETURN INVALID PUSH1 0x80 PUSH1 0x40 MSTORE CALLVALUE DUP1 ISZERO PUSH2 0x10 JUMPI PUSH1 0x0 DUP1 REVERT JUMPDEST POP PUSH1 0x4 CALLDATASIZE LT PUSH2 0x57 JUMPI PUSH1 0x0 CALLDATALOAD PUSH1 0xE0 SHR DUP1 PUSH4 0x6661ABD EQ PUSH2 0x5C JUMPI DUP1 PUSH4 0x5C975ABB EQ PUSH2 0x7A JUMPI DUP1 PUSH4 0xD431B1AC EQ PUSH2 0x98 JUMPI DUP1 PUSH4 0xD732D955 EQ PUSH2 0xA2 JUMPI DUP1 PUSH4 0xE8927FBC EQ PUSH2 0xAC JUMPI JUMPDEST PUSH1 0x0 DUP1 REVERT JUMPDEST PUSH2 0x64 PUSH2 0xB6 JUMP JUMPDEST PUSH1 0x40 MLOAD PUSH2 0x71 SWAP2 SWAP1 PUSH2 0x189 JUMP JUMPDEST PUSH1 0x40 MLOAD DUP1 SWAP2 SUB SWAP1 RETURN JUMPDEST PUSH2 0x82 PUSH2 0xBC JUMP JUMPDEST PUSH1 0x40 MLOAD PUSH2 0x8F SWAP2 SWAP1 PUSH2 0x16E JUMP JUMPDEST PUSH1 0x40 MLOAD DUP1 SWAP2 SUB SWAP1 RETURN JUMPDEST PUSH2 0xA0 PUSH2 0xCD JUMP JUMPDEST STOP JUMPDEST PUSH2 0xAA PUSH2 0xE9 JUMP JUMPDEST STOP JUMPDEST PUSH2 0xB4 PUSH2 0x11C JUMP JUMPDEST STOP JUMPDEST PUSH1 0x1 SLOAD DUP2 JUMP JUMPDEST PUSH1 0x0 DUP1 SLOAD SWAP1 PUSH2 0x100 EXP SWAP1 DIV PUSH1 0xFF AND DUP2 JUMP JUMPDEST PUSH1 0x1 PUSH1 0x0 DUP1 PUSH2 0x100 EXP DUP2 SLOAD DUP2 PUSH1 0xFF MUL NOT AND SWAP1 DUP4 ISZERO ISZERO MUL OR SWAP1 SSTORE POP JUMP JUMPDEST PUSH1 0x0 DUP1 SLOAD SWAP1 PUSH2 0x100 EXP SWAP1 DIV PUSH1 0xFF AND ISZERO PUSH2 0x101 JUMPI PUSH1 0x0 DUP1 REVERT JUMPDEST PUSH1 0x1 DUP1 PUSH1 0x0 DUP3 DUP3 SLOAD PUSH2 0x113 SWAP2 SWAP1 PUSH2 0x1FA JUMP JUMPDEST SWAP3 POP POP DUP2 SWAP1 SSTORE POP JUMP JUMPDEST PUSH1 0x0 DUP1 SLOAD SWAP1 PUSH2 0x100 EXP SWAP1 DIV PUSH1 0xFF AND ISZERO PUSH2 0x134 JUMPI PUSH1 0x0 DUP1 REVERT JUMPDEST PUSH1 0x2 PUSH1 0x1 PUSH1 0x0 DUP3 DUP3 SLOAD PUSH2 0x147 SWAP2 SWAP1 PUSH2 0x1A4 JUMP JUMPDEST SWAP3 POP POP DUP2 SWAP1 SSTORE POP JUMP JUMPDEST PUSH2 0x159 DUP2 PUSH2 0x22E JUMP JUMPDEST DUP3 MSTORE POP POP JUMP JUMPDEST PUSH2 0x168 DUP2 PUSH2 0x23A JUMP JUMPDEST DUP3 MSTORE POP POP JUMP JUMPDEST PUSH1 0x0 PUSH1 0x20 DUP3 ADD SWAP1 POP PUSH2 0x183 PUSH1 0x0 DUP4 ADD DUP5 PUSH2 0x150 JUMP JUMPDEST SWAP3 SWAP2 POP POP JUMP JUMPDEST PUSH1 0x0 PUSH1 0x20 DUP3 ADD SWAP1 POP PUSH2 0x19E PUSH1 0x0 DUP4 ADD DUP5 PUSH2 0x15F JUMP JUMPDEST SWAP3 SWAP2 POP POP JUMP JUMPDEST PUSH1 0x0 PUSH2 0x1AF DUP3 PUSH2 0x23A JUMP JUMPDEST SWAP2 POP PUSH2 0x1BA DUP4 PUSH2 0x23A JUMP JUMPDEST SWAP3 POP DUP3 PUSH32 0xFFFFFFFFFFFFFFFFFFFFFFFFFFFFFFFFFFFFFFFFFFFFFFFFFFFFFFFFFFFFFFFF SUB DUP3 GT ISZERO PUSH2 0x1EF JUMPI PUSH2 0x1EE PUSH2 0x244 JUMP JUMPDEST JUMPDEST DUP3 DUP3 ADD SWAP1 POP SWAP3 SWAP2 POP POP JUMP JUMPDEST PUSH1 0x0 PUSH2 0x205 DUP3 PUSH2 0x23A JUMP JUMPDEST SWAP2 POP PUSH2 0x210 DUP4 PUSH2 0x23A JUMP JUMPDEST SWAP3 POP DUP3 DUP3 LT ISZERO PUSH2 0x223 JUMPI PUSH2 0x222 PUSH2 0x244 JUMP JUMPDEST JUMPDEST DUP3 DUP3 SUB SWAP1 POP SWAP3 SWAP2 POP POP JUMP JUMPDEST PUSH1 0x0 DUP2 ISZERO ISZERO SWAP1 POP SWAP2 SWAP1 POP JUMP JUMPDEST PUSH1 0x0 DUP2 SWAP1 POP SWAP2 SWAP1 POP JUMP JUMPDEST PUSH32 0x4E487B7100000000000000000000000000000000000000000000000000000000 PUSH1 0x0 MSTORE PUSH1 0x11 PUSH1 0x4 MSTORE PUSH1 0x24 PUSH1 0x0 REVERT INVALID LOG2 PUSH5 0x6970667358 0x22 SLT KECCAK256 DUP15 ADDRESS SWAP14 0xEE 0xB1 DUP2 PUSH7 0x59C92FEF75F5E8 0xBC 0xAA NOT SWAP16 0xBA SHR 0xDE 0xDF PUSH22 0x5E127EE4DC939B7B2064736F6C634300080700330000 "
				},
				"gasEstimates": {
					"creation": {
						"codeDepositCost": "136200",
						"executionCost": "183",
						"totalCost": "136383"
					},
					"external": {
						"count()": "2407",
						"decrease()": "infinite",
						"increase()": "infinite",
						"paused()": "2468",
						"setPause()": "24433"
					}
				},
				"methodIdentifiers": {
					"count()": "06661abd",
					"decrease()": "d732d955",
					"increase()": "e8927fbc",
					"paused()": "5c975abb",
					"setPause()": "d431b1ac"
				}
			},
			"storageLayout": {
				"storage": [
					{
						"astId": 3,
						"contract": "6thOct/classwork2.sol:techd",
						"label": "paused",
						"offset": 0,
						"slot": "0",
						"type": "t_bool"
					},
					{
						"astId": 5,
						"contract": "6thOct/classwork2.sol:techd",
						"label": "count",
						"offset": 0,
						"slot": "1",
						"type": "t_uint256"
					}
				],
				"types": {
					"t_bool": {
						"encoding": "inplace",
						"label": "bool",
						"numberOfBytes": "1"
					},
					"t_uint256": {
						"encoding": "inplace",
						"label": "uint256",
						"numberOfBytes": "32"
					}
				}
			},
			"userdoc": {
				"kind": "user",
				"methods": {},
				"version": 1
			}
		}
	}
}