{
	"5thOct/bool.sol": {
		"dev": {
			"abi": [
				{
					"inputs": [],
					"name": "checker",
					"outputs": [
						{
							"internalType": "bool",
							"name": "",
							"type": "bool"
						}
					],
					"stateMutability": "view",
					"type": "function"
				},
				{
					"inputs": [
						{
							"internalType": "uint256",
							"name": "x",
							"type": "uint256"
						}
					],
					"name": "mic",
					"outputs": [
						{
							"internalType": "bool",
							"name": "",
							"type": "bool"
						}
					],
					"stateMutability": "nonpayable",
					"type": "function"
				}
			],
			"devdoc": {
				"kind": "dev",
				"methods": {},
				"version": 1
			},
			"evm": {
				"assembly": "    /* \"5thOct/bool.sol\":60:263  contract dev{\r... */\n  mstore(0x40, 0x80)\n  callvalue\n  dup1\n  iszero\n  tag_1\n  jumpi\n  0x00\n  dup1\n  revert\ntag_1:\n  pop\n  dataSize(sub_0)\n  dup1\n  dataOffset(sub_0)\n  0x00\n  codecopy\n  0x00\n  return\nstop\n\nsub_0: assembly {\n        /* \"5thOct/bool.sol\":60:263  contract dev{\r... */\n      mstore(0x40, 0x80)\n      callvalue\n      dup1\n      iszero\n      tag_1\n      jumpi\n      0x00\n      dup1\n      revert\n    tag_1:\n      pop\n      jumpi(tag_2, lt(calldatasize, 0x04))\n      shr(0xe0, calldataload(0x00))\n      dup1\n      0xcf5303cf\n      eq\n      tag_3\n      jumpi\n      dup1\n      0xeea64e0b\n      eq\n      tag_4\n      jumpi\n    tag_2:\n      0x00\n      dup1\n      revert\n        /* \"5thOct/bool.sol\":81:100  bool public checker */\n    tag_3:\n      tag_5\n      tag_6\n      jump\t// in\n    tag_5:\n      mload(0x40)\n      tag_7\n      swap2\n      swap1\n      tag_8\n      jump\t// in\n    tag_7:\n      mload(0x40)\n      dup1\n      swap2\n      sub\n      swap1\n      return\n        /* \"5thOct/bool.sol\":109:258  function mic(uint x) public returns(bool){\r... */\n    tag_4:\n      tag_9\n      0x04\n      dup1\n      calldatasize\n      sub\n      dup2\n      add\n      swap1\n      tag_10\n      swap2\n      swap1\n      tag_11\n      jump\t// in\n    tag_10:\n      tag_12\n      jump\t// in\n    tag_9:\n      mload(0x40)\n      tag_13\n      swap2\n      swap1\n      tag_8\n      jump\t// in\n    tag_13:\n      mload(0x40)\n      dup1\n      swap2\n      sub\n      swap1\n      return\n        /* \"5thOct/bool.sol\":81:100  bool public checker */\n    tag_6:\n      0x00\n      dup1\n      sload\n      swap1\n      0x0100\n      exp\n      swap1\n      div\n      0xff\n      and\n      dup2\n      jump\t// out\n        /* \"5thOct/bool.sol\":109:258  function mic(uint x) public returns(bool){\r... */\n    tag_12:\n        /* \"5thOct/bool.sol\":145:149  bool */\n      0x00\n        /* \"5thOct/bool.sol\":170:172  10 */\n      0x0a\n        /* \"5thOct/bool.sol\":166:167  x */\n      dup3\n        /* \"5thOct/bool.sol\":166:172  x < 10 */\n      lt\n        /* \"5thOct/bool.sol\":163:249  if(x < 10){\r... */\n      iszero\n      tag_15\n      jumpi\n        /* \"5thOct/bool.sol\":200:204  true */\n      0x01\n        /* \"5thOct/bool.sol\":190:197  checker */\n      0x00\n      dup1\n        /* \"5thOct/bool.sol\":190:204  checker = true */\n      0x0100\n      exp\n      dup2\n      sload\n      dup2\n      0xff\n      mul\n      not\n      and\n      swap1\n      dup4\n      iszero\n      iszero\n      mul\n      or\n      swap1\n      sstore\n      pop\n        /* \"5thOct/bool.sol\":228:235  checker */\n      0x00\n      dup1\n      sload\n      swap1\n      0x0100\n      exp\n      swap1\n      div\n      0xff\n      and\n        /* \"5thOct/bool.sol\":221:235  return checker */\n      swap1\n      pop\n      jump(tag_14)\n        /* \"5thOct/bool.sol\":163:249  if(x < 10){\r... */\n    tag_15:\n        /* \"5thOct/bool.sol\":109:258  function mic(uint x) public returns(bool){\r... */\n    tag_14:\n      swap2\n      swap1\n      pop\n      jump\t// out\n        /* \"#utility.yul\":7:146   */\n    tag_17:\n        /* \"#utility.yul\":53:58   */\n      0x00\n        /* \"#utility.yul\":91:97   */\n      dup2\n        /* \"#utility.yul\":78:98   */\n      calldataload\n        /* \"#utility.yul\":69:98   */\n      swap1\n      pop\n        /* \"#utility.yul\":107:140   */\n      tag_19\n        /* \"#utility.yul\":134:139   */\n      dup2\n        /* \"#utility.yul\":107:140   */\n      tag_20\n      jump\t// in\n    tag_19:\n        /* \"#utility.yul\":7:146   */\n      swap3\n      swap2\n      pop\n      pop\n      jump\t// out\n        /* \"#utility.yul\":152:481   */\n    tag_11:\n        /* \"#utility.yul\":211:217   */\n      0x00\n        /* \"#utility.yul\":260:262   */\n      0x20\n        /* \"#utility.yul\":248:257   */\n      dup3\n        /* \"#utility.yul\":239:246   */\n      dup5\n        /* \"#utility.yul\":235:258   */\n      sub\n        /* \"#utility.yul\":231:263   */\n      slt\n        /* \"#utility.yul\":228:347   */\n      iszero\n      tag_22\n      jumpi\n        /* \"#utility.yul\":266:345   */\n      tag_23\n      tag_24\n      jump\t// in\n    tag_23:\n        /* \"#utility.yul\":228:347   */\n    tag_22:\n        /* \"#utility.yul\":386:387   */\n      0x00\n        /* \"#utility.yul\":411:464   */\n      tag_25\n        /* \"#utility.yul\":456:463   */\n      dup5\n        /* \"#utility.yul\":447:453   */\n      dup3\n        /* \"#utility.yul\":436:445   */\n      dup6\n        /* \"#utility.yul\":432:454   */\n      add\n        /* \"#utility.yul\":411:464   */\n      tag_17\n      jump\t// in\n    tag_25:\n        /* \"#utility.yul\":401:464   */\n      swap2\n      pop\n        /* \"#utility.yul\":357:474   */\n      pop\n        /* \"#utility.yul\":152:481   */\n      swap3\n      swap2\n      pop\n      pop\n      jump\t// out\n        /* \"#utility.yul\":487:596   */\n    tag_26:\n        /* \"#utility.yul\":568:589   */\n      tag_28\n        /* \"#utility.yul\":583:588   */\n      dup2\n        /* \"#utility.yul\":568:589   */\n      tag_29\n      jump\t// in\n    tag_28:\n        /* \"#utility.yul\":563:566   */\n      dup3\n        /* \"#utility.yul\":556:590   */\n      mstore\n        /* \"#utility.yul\":487:596   */\n      pop\n      pop\n      jump\t// out\n        /* \"#utility.yul\":602:812   */\n    tag_8:\n        /* \"#utility.yul\":689:693   */\n      0x00\n        /* \"#utility.yul\":727:729   */\n      0x20\n        /* \"#utility.yul\":716:725   */\n      dup3\n        /* \"#utility.yul\":712:730   */\n      add\n        /* \"#utility.yul\":704:730   */\n      swap1\n      pop\n        /* \"#utility.yul\":740:805   */\n      tag_31\n        /* \"#utility.yul\":802:803   */\n      0x00\n        /* \"#utility.yul\":791:800   */\n      dup4\n        /* \"#utility.yul\":787:804   */\n      add\n        /* \"#utility.yul\":778:784   */\n      dup5\n        /* \"#utility.yul\":740:805   */\n      tag_26\n      jump\t// in\n    tag_31:\n        /* \"#utility.yul\":602:812   */\n      swap3\n      swap2\n      pop\n      pop\n      jump\t// out\n        /* \"#utility.yul\":899:989   */\n    tag_29:\n        /* \"#utility.yul\":933:940   */\n      0x00\n        /* \"#utility.yul\":976:981   */\n      dup2\n        /* \"#utility.yul\":969:982   */\n      iszero\n        /* \"#utility.yul\":962:983   */\n      iszero\n        /* \"#utility.yul\":951:983   */\n      swap1\n      pop\n        /* \"#utility.yul\":899:989   */\n      swap2\n      swap1\n      pop\n      jump\t// out\n        /* \"#utility.yul\":995:1072   */\n    tag_35:\n        /* \"#utility.yul\":1032:1039   */\n      0x00\n        /* \"#utility.yul\":1061:1066   */\n      dup2\n        /* \"#utility.yul\":1050:1066   */\n      swap1\n      pop\n        /* \"#utility.yul\":995:1072   */\n      swap2\n      swap1\n      pop\n      jump\t// out\n        /* \"#utility.yul\":1201:1318   */\n    tag_24:\n        /* \"#utility.yul\":1310:1311   */\n      0x00\n        /* \"#utility.yul\":1307:1308   */\n      dup1\n        /* \"#utility.yul\":1300:1312   */\n      revert\n        /* \"#utility.yul\":1324:1446   */\n    tag_20:\n        /* \"#utility.yul\":1397:1421   */\n      tag_41\n        /* \"#utility.yul\":1415:1420   */\n      dup2\n        /* \"#utility.yul\":1397:1421   */\n      tag_35\n      jump\t// in\n    tag_41:\n        /* \"#utility.yul\":1390:1395   */\n      dup2\n        /* \"#utility.yul\":1387:1422   */\n      eq\n        /* \"#utility.yul\":1377:1440   */\n      tag_42\n      jumpi\n        /* \"#utility.yul\":1436:1437   */\n      0x00\n        /* \"#utility.yul\":1433:1434   */\n      dup1\n        /* \"#utility.yul\":1426:1438   */\n      revert\n        /* \"#utility.yul\":1377:1440   */\n    tag_42:\n        /* \"#utility.yul\":1324:1446   */\n      pop\n      jump\t// out\n\n    auxdata: 0xa264697066735822122045e1583582af5e782156373b8bbf784aa2400abcc76174a4121e5ce3e7e6e4af64736f6c63430008070033\n}\n",
				"bytecode": {
					"linkReferences": {},
					"object": "608060405234801561001057600080fd5b506101ae806100206000396000f3fe608060405234801561001057600080fd5b50600436106100365760003560e01c8063cf5303cf1461003b578063eea64e0b14610059575b600080fd5b610043610089565b604051610050919061012b565b60405180910390f35b610073600480360381019061006e91906100ef565b61009a565b604051610080919061012b565b60405180910390f35b60008054906101000a900460ff1681565b6000600a8210156100d45760016000806101000a81548160ff02191690831515021790555060008054906101000a900460ff1690506100d5565b5b919050565b6000813590506100e981610161565b92915050565b6000602082840312156101055761010461015c565b5b6000610113848285016100da565b91505092915050565b61012581610146565b82525050565b6000602082019050610140600083018461011c565b92915050565b60008115159050919050565b6000819050919050565b600080fd5b61016a81610152565b811461017557600080fd5b5056fea264697066735822122045e1583582af5e782156373b8bbf784aa2400abcc76174a4121e5ce3e7e6e4af64736f6c63430008070033",
					"opcodes": "PUSH1 0x80 PUSH1 0x40 MSTORE CALLVALUE DUP1 ISZERO PUSH2 0x10 JUMPI PUSH1 0x0 DUP1 REVERT JUMPDEST POP PUSH2 0x1AE DUP1 PUSH2 0x20 PUSH1 0x0 CODECOPY PUSH1 0x0 RETURN INVALID PUSH1 0x80 PUSH1 0x40 MSTORE CALLVALUE DUP1 ISZERO PUSH2 0x10 JUMPI PUSH1 0x0 DUP1 REVERT JUMPDEST POP PUSH1 0x4 CALLDATASIZE LT PUSH2 0x36 JUMPI PUSH1 0x0 CALLDATALOAD PUSH1 0xE0 SHR DUP1 PUSH4 0xCF5303CF EQ PUSH2 0x3B JUMPI DUP1 PUSH4 0xEEA64E0B EQ PUSH2 0x59 JUMPI JUMPDEST PUSH1 0x0 DUP1 REVERT JUMPDEST PUSH2 0x43 PUSH2 0x89 JUMP JUMPDEST PUSH1 0x40 MLOAD PUSH2 0x50 SWAP2 SWAP1 PUSH2 0x12B JUMP JUMPDEST PUSH1 0x40 MLOAD DUP1 SWAP2 SUB SWAP1 RETURN JUMPDEST PUSH2 0x73 PUSH1 0x4 DUP1 CALLDATASIZE SUB DUP2 ADD SWAP1 PUSH2 0x6E SWAP2 SWAP1 PUSH2 0xEF JUMP JUMPDEST PUSH2 0x9A JUMP JUMPDEST PUSH1 0x40 MLOAD PUSH2 0x80 SWAP2 SWAP1 PUSH2 0x12B JUMP JUMPDEST PUSH1 0x40 MLOAD DUP1 SWAP2 SUB SWAP1 RETURN JUMPDEST PUSH1 0x0 DUP1 SLOAD SWAP1 PUSH2 0x100 EXP SWAP1 DIV PUSH1 0xFF AND DUP2 JUMP JUMPDEST PUSH1 0x0 PUSH1 0xA DUP3 LT ISZERO PUSH2 0xD4 JUMPI PUSH1 0x1 PUSH1 0x0 DUP1 PUSH2 0x100 EXP DUP2 SLOAD DUP2 PUSH1 0xFF MUL NOT AND SWAP1 DUP4 ISZERO ISZERO MUL OR SWAP1 SSTORE POP PUSH1 0x0 DUP1 SLOAD SWAP1 PUSH2 0x100 EXP SWAP1 DIV PUSH1 0xFF AND SWAP1 POP PUSH2 0xD5 JUMP JUMPDEST JUMPDEST SWAP2 SWAP1 POP JUMP JUMPDEST PUSH1 0x0 DUP2 CALLDATALOAD SWAP1 POP PUSH2 0xE9 DUP2 PUSH2 0x161 JUMP JUMPDEST SWAP3 SWAP2 POP POP JUMP JUMPDEST PUSH1 0x0 PUSH1 0x20 DUP3 DUP5 SUB SLT ISZERO PUSH2 0x105 JUMPI PUSH2 0x104 PUSH2 0x15C JUMP JUMPDEST JUMPDEST PUSH1 0x0 PUSH2 0x113 DUP5 DUP3 DUP6 ADD PUSH2 0xDA JUMP JUMPDEST SWAP2 POP POP SWAP3 SWAP2 POP POP JUMP JUMPDEST PUSH2 0x125 DUP2 PUSH2 0x146 JUMP JUMPDEST DUP3 MSTORE POP POP JUMP JUMPDEST PUSH1 0x0 PUSH1 0x20 DUP3 ADD SWAP1 POP PUSH2 0x140 PUSH1 0x0 DUP4 ADD DUP5 PUSH2 0x11C JUMP JUMPDEST SWAP3 SWAP2 POP POP JUMP JUMPDEST PUSH1 0x0 DUP2 ISZERO ISZERO SWAP1 POP SWAP2 SWAP1 POP JUMP JUMPDEST PUSH1 0x0 DUP2 SWAP1 POP SWAP2 SWAP1 POP JUMP JUMPDEST PUSH1 0x0 DUP1 REVERT JUMPDEST PUSH2 0x16A DUP2 PUSH2 0x152 JUMP JUMPDEST DUP2 EQ PUSH2 0x175 JUMPI PUSH1 0x0 DUP1 REVERT JUMPDEST POP JUMP INVALID LOG2 PUSH5 0x6970667358 0x22 SLT KECCAK256 GASLIMIT 0xE1 PC CALLDATALOAD DUP3 0xAF 0x5E PUSH25 0x2156373B8BBF784AA2400ABCC76174A4121E5CE3E7E6E4AF64 PUSH20 0x6F6C634300080700330000000000000000000000 "
				},
				"gasEstimates": {
					"creation": {
						"codeDepositCost": "86000",
						"executionCost": "135",
						"totalCost": "86135"
					},
					"external": {
						"checker()": "2446",
						"mic(uint256)": "27045"
					}
				},
				"methodIdentifiers": {
					"checker()": "cf5303cf",
					"mic(uint256)": "eea64e0b"
				}
			},
			"storageLayout": {
				"storage": [
					{
						"astId": 3,
						"contract": "5thOct/bool.sol:dev",
						"label": "checker",
						"offset": 0,
						"slot": "0",
						"type": "t_bool"
					}
				],
				"types": {
					"t_bool": {
						"encoding": "inplace",
						"label": "bool",
						"numberOfBytes": "1"
					}
				}
			},
			"userdoc": {
				"kind": "user",
				"methods": {},
				"version": 1
			}
		}
	}
}